:020000040800F2
:1000000038320020450200083F2900084D2600082C
:100010003D290008370A0008BD2F00080000000035
:10002000000000000000000000000000432900085C
:10003000870A00080000000041290008452900083F
:100040005F0200085F0200085F0200085F0200080C
:100050005F0200085F0200085F0200085F020008FC
:100060005F0200085F0200085F0200085F020008EC
:100070005F020008390A0008450A00085F0200080C
:10008000510A00085F0200085F0200085F020008D2
:100090005F0200085F0200085F0200085F020008BC
:1000A0005F0200085F0200085F0200085F020008AC
:1000B0004D2900085F0200085F0200085F02000887
:1000C0005F0200085F0200085F0200085F0200088C
:1000D0005F020008992F0008A52F0008B12F000823
:1000E000890A00085F0200085F02000800000000A3
:1000F0000000000000000000000000000000000000
:1001000000000000000000005F0200085F0200081D
:100110005F020008A12B00085F0200085F020008D0
:100120005F0200085F0200085F0200085F0200082B
:100130005F02000800000000000000005F020008ED
:100140005F0200085F0200085F0200085F0200080B
:1001500000F002F800F067F80AA090E8000C824472
:100160008344AAF10107DA4501D100F05CF8AFF24F
:10017000090EBAE80F0013F0010F18BFFB1A43F085
:1001800001031847703800009038000010F8013B58
:100190000A4413F0030408BF10F8014B1D1108BFF7
:1001A00010F8015B641E05D010F8016B641E01F8A5
:1001B000016BF9D1002D15D010F8014B03F00C03A1
:1001C0000C2BA1EB04040ABF10F8013BA4EB831431
:1001D000A4EB032405F1010314F8016B5B1E01F885
:1001E000016BF9D5914238BF10F8013BD1D370476C
:1001F0000023002400250026103A28BF78C1FBD830
:10020000520728BF30C148BF0B607047732900F008
:100210008E82002070471FB59DE8030000F0AEFA03
:100220001FBD10B510BD00F0ECFA1146FFF7F3FF4B
:1002300003F0AEFB00F024FB03B4FFF7F2FF03BCB6
:1002400000F062FB0948804709480047FEE7FEE7E7
:10025000FEE7FEE7FEE7FEE7FEE7FEE7FEE7FEE776
:1002600004480549054A064B704700004929000823
:1002700051010008381400203832002038230020B3
:100280003823002053EA020C00F069802DE9F04B7E
:100290004FF00006002B1FBFB3FA83F503FA05F4F5
:1002A00024FA05F65E4012BF1643B2FA82F502FA4E
:1002B00005F4C5F120051EBF22FA05FC44EA0C0432
:1002C000203556EA044C4FEA144418BF641C4FF022
:1002D00000084FF00009904271EB030C39D300295C
:1002E00019BFB1FA81F701FA07F6B0FA80F700FA00
:1002F00007F6C7F120071EBF20FA07FC46EA0C06E6
:100300002037B6FBF4FCA7EB0507103F07F01F0BE7
:10031000CBF120060CFA0BFB2CFA06F644BFB346D1
:100320000026202FA4BF5E464FF0000B5BEA060CB0
:1003300008BF4FF0010B19EB0B09ABFB027C48EB3C
:100340000608C01B06FB02CC0BFB03CC71EB0C01B7
:10035000C1E70B46024641464846BDE8F08B13B55F
:100360004FF000004FF00001AFF30080BDE81C40EB
:10037000704700000FB41CB5074B06AA7B446946C2
:100380000090059800F0A9F90020694600F0B8F93E
:100390001CBC5DF814FB0000810300002DE9F04156
:1003A0000E460446002020622046E168884730B3AC
:1003B000252805D0D4E901219047206A401CF2E7A6
:1003C000E168204600278847050018D0A5F14100C4
:1003D000192802D820354FF40067324629462046B6
:1003E0002760FFF713FF40B1012804D0F61D26F067
:1003F00007060836D8E7361DD6E72846DAE7206A2A
:10040000BDE8F08170B50C460546012A05D0287874
:10041000800600D5EA69002302E0012305E05B1CA9
:10042000934202D2E05C0028F9D1A869E618C01A0C
:10043000A861286A184428622846AFF3008004E0C7
:10044000D5E9012114F8010B9047B442F8D32846AE
:10045000AFF3008070BD10B5431C02E010F8011B23
:1004600071B18107FAD14FF0013202C88C1A8C4366
:1004700014EAC211F9D0C01A0A0603D0C01E10BD7A
:10048000C01A10BD0A0401D0801E10BD0902FCD0A4
:10049000401E10BD032A40F2308010F0030C00F023
:1004A000158011F8013BBCF1020F624498BF11F8AE
:1004B00001CB00F8013B38BF11F8013BA2F1040267
:1004C00098BF00F801CB38BF00F8013B11F00303DF
:1004D00000F02580083AC0F0088051F8043B083A43
:1004E00051F804CBA0E80810F5E7121D5CBF51F8E5
:1004F000043B40F8043BAFF30080D20724BF11F85F
:10050000013B11F801CB48BF11F8012B24BF00F8C3
:10051000013B00F801CB48BF00F8012B704710B534
:10052000203AC0F00B80B1E81850203AA0E81850EB
:10053000B1E81850A0E81850BFF4F5AF5FEA027CAC
:1005400024BFB1E81850A0E8185044BF18C918C01B
:10055000BDE810405FEA827C24BF51F8043B40F8BC
:10056000043B08BF7047D20728BF31F8023B48BFA1
:1005700011F8012B28BF20F8023B48BF00F8012BDF
:1005800070474FF000020429C0F0128010F0030CF5
:1005900000F01B80CCF1040CBCF1020F18BF00F876
:1005A000012BA8BF20F8022BA1EB0C0100F00DB825
:1005B0005FEAC17C24BF00F8012B00F8012B48BF83
:1005C00000F8012B70474FF0000200B51346944627
:1005D0009646203922BFA0E80C50A0E80C50B1F19B
:1005E0002001BFF4F7AF090728BFA0E80C5048BFAF
:1005F0000CC05DF804EB890028BF40F8042B08BF4D
:10060000704748BF20F8022B11F0804F18BF00F848
:10061000012B7047704770477047000000487047D3
:100620000814002070B5064600F08CF8056806F145
:100630000B0020F00704B4429CBF002070BD2B4685
:100640006A68BAB11068A04210D304F10801884268
:100650003CBF5068586007D3516810194160116859
:10066000091B016058601460101D70BD134652686C
:10067000002AE7D12146284600F06CF80028DED198
:1006800070BD70B50446051F00F05CF80068002CD2
:1006900014BF446870BD002C18BFAC423CBF20465C
:1006A0006468F8D301680A18AA4218BF456003D1EC
:1006B0002A6805461144016028684119A1421CBFFF
:1006C0006C6070BD6168696021680844286070BD15
:1006D00001694A1C02610878704700B58FB0CDE906
:1006E00001310021059105497944CDE903101146F6
:1006F0006846FFF753FE0FB000BD0000E5FFFFFFA7
:100700000A6802F8010B0A60704710B5436913B11B
:10071000AFF3008001E0FFF775FE012010BD1278F5
:1007200000F124010A7000224A700122EDE71168ED
:100730004FF0FF32E9E700F057B80000004870477B
:10074000D413002000487047DC1300207047704726
:100750007047704738B504460A4600206946AFF333
:100760000080002808BF38BD02460099204600F0EE
:100770006DF8012038BD012000F096B8F8B5AFF350
:100780000080054600200C46102000BF0646A81930
:10079000A0420DD9324669460020AFF30080070021
:1007A00008BF00F081F80098A04218BF0546C419A0
:1007B000FFF7C8FF05600746F01D20F00700461947
:1007C000284600F00AF8B44208BFF8BDA21B314623
:1007D0003868BDE8F84000F039B800210160C0E990
:1007E000011070471020704710B500F068F80169DB
:1007F00019B100220261884701E08068804700F05B
:1008000048F87546FFF79AFFAE460500694653461D
:1008100020F00700854618B020B5FFF721FDBDE8A0
:1008200020404FF000064FF000074FF000084FF057
:10083000000B21F00701AC46ACE8C009ACE8C009E8
:10084000ACE8C009ACE8C0098D4670470346406873
:100850008C46002818BF88423CBF03464068F8D346
:1008600018681844884207D00CF1030020F00700F4
:10087000001D411A521A0146081D0A60FFF701BF08
:1008800010B50446AFF300802046BDE81040FFF7E6
:10089000D3BC10B5002000F048F8FFF7C2FCBDE85B
:1008A0001040012000F030B810B500F045F8BDE868
:1008B000104000F035B8000010B5FFF7EAFF70B542
:1008C00000F02AF804680546A4B92020FFF7AAFE24
:1008D000040011D0094900202C60C4E90001084936
:1008E000A1602073206160610649A06109B100F038
:1008F0004BF8E061204670BDFFF7CBFF0000000021
:10090000B90800080000000001491820ABBEFEE74E
:1009100026000200704700000048704710140020B5
:10092000002801D0FFF7F0BF704710B500F064F861
:10093000BDE81040FFF7F4BF10B5012805D0002135
:1009400003A000F03FF8012010BD09A1F8E7000066
:1009500053494752544D454D3A204F7574206F66A8
:100960002068656170206D656D6F72790000000010
:100970003A2048656170206D656D6F727920636FF4
:10098000727275707465640010B58820FFF74AFEB6
:10099000002801D00021017010BD802902D808B1C3
:1009A000017809B100207047012100F8081B704749
:1009B00018B100F10802914201D0002070470021D7
:1009C0000170704770B505460C460A2000E06D1CAA
:1009D00000F02AF835B128780028F8D102E0641C2C
:1009E00000F022F814B120780028F8D1BDE870405A
:1009F0000A2000F019B8000010B5002102A0FFF78E
:100A0000E1FF012010BD0000534947414252543AD2
:100A10002041626E6F726D616C207465726D696EDB
:100A20006174696F6E00000008B569468DF80000BA
:100A30000320ABBE08BDFEE7014800F0E7B80000A8
:100A4000480D0020014800F0E1B80000C00C002073
:100A5000014800F0DBB80000040D002030B590F82C
:100A600040500124AC40C56B6C600468636043680F
:100A7000102B036803D099600068C26030BD9A6093
:100A80000068C16030BD70474FF4004000F084BA88
:100A900072B6FEE710B590F821100022022905D0A9
:100AA0000421816380F82020012010BD01680B68BB
:100AB00023F00E030B6001680B6823F001030B6049
:100AC00090F84030C46B012101FA03F3636080F8B1
:100AD000211080F82020104610BD00002DE9F05FA5
:100AE00090F821100024022903D0042181630124FD
:100AF00085E001680A6822F00E020A6001680A684F
:100B000022F001020A603F4E3E4FB215DFF8F4C0FA
:100B1000DFF8F090DFF8ECA0DFF8E8B0DFF8E4E011
:100B20000168783F13011502ACF1640CA9F150097A
:100B3000AAF13C0AABF1280BAEF1140E4FF4801869
:100B4000B14227D9B9420ED0614512D049451DD0D6
:100B5000514518D0594518D0714501D1424615E08C
:100B6000294EB14201D1012210E0274E1436B14284
:100B700001D110220AE0244E2836B14206D0224A82
:100B80003C32914201D11A4600E02A461E49091F13
:100B90000A602BE0B94213D0614517D0494522D0F5
:100BA00051451DD059451DD0714501D142461AE02D
:100BB000B14202D14FF0807215E0134EB14201D123
:100BC000012210E0104E1436B14201D110220AE089
:100BD0000D4E2836B14206D00B4A3C32914201D12B
:100BE0001A4600E02A46074980394A60012180F808
:100BF0002110002180F82010416B01B18847204668
:100C0000BDE8F09F80000240080402402DE9F05F3B
:100C1000C16B0A6801680B68046C4FF0040808FA9D
:100C200004F8844D844E854FDFF814C2DFF8149227
:100C3000DFF814A2DFF814B2DFF814E218EA020FAA
:100C400065D05FEA437862D50A68920603D40A68E1
:100C500022F004020A60DFF8F0814FF4806201683C
:100C600008F1140813011402414524D9A9420DD0FA
:100C7000B1420FD0B9421AD0614515D0494515D0BF
:100C8000514501D1120312E0594501D104220EE071
:100C9000714501D140220AE06D4D1435A94206D0BC
:100CA0006B4A2832914201D11A4600E02246674938
:100CB000091F0A6029E0A94213D0B14215D0B942F8
:100CC00020D061451BD049451BD0514502D14FF47E
:100CD000800217E0414502D14FF0806212E0594591
:100CE00001D104220EE0714501D140220AE0584DA5
:100CF0001435A94206D0564A2832914201D11A46EB
:100D000000E022464B4908394A60C16A71E04FF061
:100D1000020808FA04F818EA020F70D05FEA837834
:100D20006DD50A68920606D40A6822F00A020A60A3
:100D3000012180F82110DFF810814FF40072016862
:100D400008F1140813011402414524D9A9420DD019
:100D5000B1420FD0B9421AD0614515D0494515D0DE
:100D6000514501D1120312E0594501D102220EE092
:100D7000714501D120220AE0354D1435A94206D033
:100D8000334A2832914201D11A4600E022462F49C7
:100D9000091F0A6029E0A94213D0B14215D0B94217
:100DA00020D061451BD049451BD0514502D14FF49D
:100DB000001217E0414502D14FF0007212E0594590
:100DC00001D102220EE0714501D120220AE0204D1E
:100DD0001435A94206D01E4A2832914201D11A4642
:100DE00000E02246134908394A60002180F82010AB
:100DF000816A00291CD0BDE8F05F0847FFE708259D
:100E0000A540154214D01A0712D50A6822F00E0226
:100E10000A6090F84020C36B012101FA02F25A6087
:100E2000816380F82110002180F82010016BE0E739
:100E3000BDE8F09F080002401C0002403000024064
:100E400044000240580002406C0002400804024086
:100E50001C04024030B560B11A4B026814219A425A
:100E600009D2194B1344B3FBF1F18900016417490E
:100E70000AE0012030BD134B5B421344B3FBF1F198
:100E8000890001640F490839C163022180F82110EB
:100E9000136843F6F0718B43F0E901142143D0E964
:100EA00002452C4321430469214344692143846959
:100EB00021431943116000214163012242770177E8
:100EC000084630BD08040240F8FFFDBF00000240A4
:100ED00070B5044690F82000002501280CD00120B0
:100EE00084F8200094F821600020012E06D084F8B8
:100EF00020000225284670BD022070BD022684F81D
:100F00002160A0632068066826F00106066020467E
:100F1000FFF7A4FDE06A00282068016802D041F0D4
:100F20000E0106E021F0040101602068016841F033
:100F30000A0101602068016841F001010160D9E700
:100F400070B5044600F02EF90546601C02D0044836
:100F50000078044400F026F9401BA042FAD370BD8B
:100F60000000002010B54FF4004188420CD1084821
:100F700000F00EF9002807D10648406D90F899104E
:100F800019B1002180F8991010BD0121FAE7000085
:100F9000000801407C130020044910B50A68024291
:100FA00002D00860FFF7DEFF10BD0000140401400E
:100FB0002DE9F84FDFF8B8910024A9F1040B23467E
:100FC0000F2709F1040AABF1040EC9E00125A54081
:100FD0002A40AA427DD1674ED1F804C0ACEB060886
:100FE000B44532D014DCBCF1030F3AD009DCBCF1BB
:100FF000000F2AD0BCF1010F1CD0BCF1020F31D17F
:101000001DE0BCF1110F17D0BCF1120F2AD119E06D
:10101000B8F5881F19D006DCB8F5803F15D0B8F5B3
:10102000801F1FD111E0B8F5001F0ED0B8F5041FC6
:1010300018D10AE0CB6815E0CB681B1D12E0CB6825
:1010400008330FE0CB680C330CE08B682BB1012B1D
:101050004FF0080303D0456104E0042302E005617A
:1010600000E00023FF2A01D8064601E000F1040653
:101070004FEA840501D9A5F12005D6F8008007FACA
:1010800005FC28EA0C0803FA05F548EA0508C6F845
:1010900000804D68ED0062D5374DAE6946F001061F
:1010A000AE61AD6924F0030605F001050095334DEE
:1010B00006EB050CDCF80850A607360F07FA06F811
:1010C00025EA0805DFF8B880404503D14FF0000855
:1010D00017E044E0DFF8AC80404502D14FF0010852
:1010E0000FE0DFF8A480404502D14FF0020808E08D
:1010F000DFF89880404502D14FF0030801E04FF03F
:10110000040808FA06F848EA0508CCF808804D6893
:10111000D9F80060ED024D4601D5164300E0964334
:101120002E604D68DAF80060AD02554601D51643D1
:1011300000E096432E604D68DBF80060AD035D462D
:1011400001D5164300E096432E604D68DEF800603E
:10115000ED03754601D5164300E096432E60641CEE
:101160000D682A46E5407FF431AFBDE8F88F0000F6
:10117000080401400000111000100240000001406E
:1011800000080140000C0140001001400014014023
:101190008068084000D0012070470AB101617047A3
:1011A0000904FBE701488068704700000000002048
:1011B0000248816802781144816070470000002075
:1011C000074810B5016841F010010160032000F0EC
:1011D00075F8002000F006F800F024F8002010BD9B
:1011E0000020024070B50D4D04464FF47A71287806
:1011F000B1FBF0F00A490968B1FBF0F000F05EFBCA
:1012000048B9102C07D200222146501E00F036F8B3
:1012100000206C6070BD012070BD00000000002047
:101220000C0000200C4808B5816941F00101816182
:10123000816901F001010091C16941F08051C161F2
:10124000C06900F0805000900448416821F0E061DE
:1012500041F00071416008BD0010024000000140F3
:10126000002809DB00F01F020121914040098000A5
:1012700000F1E020C0F8001170470000F0B40E4B00
:101280001B680C46C3F30223C3F10705042D00D9E4
:101290000425191D072901D2002300E0DB1E0126C9
:1012A00006FA05F1491E214099409E40761E1640DF
:1012B0003143F0BC02F054BB0CED00E0064900F0F5
:1012C000070208684FF6FF03184040EA0220034A6D
:1012D00010430860704700000CED00E00000FA05C4
:1012E0002DE9F0470F46050061D0434E306800F00D
:1012F0000700B84209D2306820F007003843306058
:10130000306800F00700B84251D128683B4C810793
:1013100012D5400703D5606840F4E060606028782B
:10132000000703D5606840F4605060606068A96899
:1013300020F0F000084360602878C00728D0686873
:10134000012810D02168022810D0890700292EDA40
:10135000616821F0030101436160FFF723FF8046CC
:1013600041F288390DE021688903EFE78901EDE753
:10137000FFF718FFA0EB0801494502D90320BDE89B
:10138000F0876068696800F00C00B0EB810FEFD166
:10139000306800F00700B8420BD9306820F0070031
:1013A00038433060306800F00700B84201D00120B7
:1013B000E5E72878400705D56068E96820F4E06033
:1013C000084360602878000706D56068296920F422
:1013D000605040EAC100606000F038F86168084A77
:1013E000C1F30311515CC840064908600648006813
:1013F000FFF7F8FE0020C2E7002002400010024084
:10140000DC3900080C0000200400002004480549D5
:1014100000684968044AC1F30221515CC840704722
:101420000C00002000100240EC3900080448054977
:1014300000684968044AC1F3C221515CC840704742
:101440000C00002000100240EC3900082DE9F041AA
:101450001D494A681D4802F00C03042B2ED0082BAE
:101460002CD11B48C2F38343C45CD00328D5C86A7F
:10147000174A00F00F000E32105CCA6AD20316D56C
:10148000CA6AC96AC2F30312C1F30321521C891C40
:10149000A2FB0023A1FB04150C4F0026A1FB070CA7
:1014A00005FB07C501FB0651FEF7ECFE03E007490B
:1014B0006143B1FBF0F00D2C00D14008BDE8F08194
:1014C00004486043FAE700000010024000127A006E
:1014D000BE39000800093D002DE9F84F040070D026
:1014E0002078F14DC00749D06868C0F38100012819
:1014F00007D06868C0F38100022809D16868C0037A
:1015000006D52868800339D5A0680028E7D035E0E3
:10151000A068B0F5803F0BD010B1B0F5A02F11D06E
:10152000286820F480302860286820F4802002E0B9
:10153000286840F480302860A06890B1FFF732FE40
:1015400006460AE0286840F480202860F0E700BFE3
:10155000FFF728FE801B642876D828688003F7D51B
:101560000CE0FFF71FFE064605E000BFFFF71AFE7E
:10157000801B6428F0D828688003F7D42078CB4EED
:1015800080074FF001094FF000073AD5686810F066
:101590000C0F07D06868C0F38100022809D1686881
:1015A000C00306D42868800715D56069012808D1D2
:1015B00011E06069B8B1C6F80090FFF7F3FD80460E
:1015C00006E042E1FFF7EEFDA0EB08000228C3D8D9
:1015D00028688007F6D52868A16920F0F80040EA5D
:1015E000C10028600DE03760FFF7DCFD804605E0B4
:1015F000FFF7D8FDA0EB08000228ADD828688007C7
:10160000F6D4207800072ED5A948E169E9B1C0F8E1
:101610000090FFF7C7FD804606E000BFFFF7C2FD60
:10162000A0EB0800022897D8686A8007F6D5A14881
:101630004FF4FA510068B0FBF1F0009000BF009841
:10164000411E0091FAD20EE0B0E00760FFF7AAFD5C
:10165000804605E0FFF7A6FDA0EB0800022889D828
:10166000686A8007F6D42078400763D5E8694FF0B0
:101670000008C00009D4E86940F08050E861E869DA
:101680004FF0010800F0805000908B480168C905B8
:1016900012D40168834641F480710160FFF782FD36
:1016A000824605E0FFF77EFDA0EB0A0064287DD8A6
:1016B000DBF80000C005F5D5206901280AD008B183
:1016C000052813D0286A20F001002862286A20F03B
:1016D000040002E0286A40F001002862206941F21B
:1016E000883B98B1FFF75EFD82460BE0286A40F028
:1016F00004002862EEE700BFFFF754FDA0EB0A01EB
:10170000594553D8286A8007F6D50CE0FFF74AFD03
:10171000824605E0FFF746FDA0EB0A01594545D892
:10172000286A8007F6D4B8F1000F03D0E86920F0EA
:101730008050E861E06AD0B36968C90307D5696879
:10174000C1F38101022902D1E96AC9037DD40228CB
:1017500008D0E86A20F48030E862B766FFF722FD1F
:1017600080463BE02868C00005D5E86A616B00F060
:10177000F000884269D1B766FFF714FD804605E0A6
:10178000FFF710FDA0EB0800642874D8286800015A
:10179000F6D4E86A616B20F0F0000843E862E86A7A
:1017A000216B20F470600843E86201E063E018E018
:1017B000C6F86890FFF7F6FC804605E0FFF7F2FCFC
:1017C000A0EB0800642856D828680001F6D508E088
:1017D000FFF7E8FCA0EB080064284CD8286800015B
:1017E000F6D4206A90B36968C1F38101022949D017
:1017F0000228376603D0FFF7D5FC04463EE0FFF72A
:10180000D1FC074605E000BFFFF7CCFCC01B022857
:1018100031D828688001F7D4606AB0F5803F09D1DB
:10182000E86A61680843E862E86AE16820F00F004E
:101830000843E862D4E909010843696821F4741196
:1018400008436860C6F8609001E028E029E0FFF7EF
:10185000A9FC044605E000BFFFF7A4FC001B02281A
:1018600009D828688001F7D51BE000BFFFF79AFC74
:10187000001B022802D90320BDE8F88F28688001E8
:10188000F4D40EE00128F7D06868626A00F4803171
:10189000914204D1A16A00F47010884201D0012065
:1018A000EAE70020E8E700000010024000004242A2
:1018B000800442420C0000200070004010B5401E21
:1018C000B0F1807F01D3012010BD4FF0E0246061B2
:1018D0000F21601702F044F80020A061072020616A
:1018E000002010BD7047704770B590F83C20012A69
:1018F00029D0012480F83C40022280F83D20036872
:101900005A689D6822F070060A6832435A600F4B8D
:1019100002689A420BD0B2F1804F08D00C4B9A4229
:1019200005D00C4B9A4202D00B4B9A4204D1496825
:1019300025F080031943916080F83D40002180F834
:101940003C10084670BD022070BD0000002C014014
:101950000004004000080040000C004010B50400E6
:1019600003D094F83D0010B107E0012010BD002025
:1019700084F83C00204600F01FF8022084F83D0067
:10198000211D206800F0E8FF012084F8460084F85B
:101990003E0084F83F0084F8400084F8410084F859
:1019A000420084F8430084F8440084F8450084F839
:1019B0003D00002010BD000008B501681048B1F1DD
:1019C000804F0BD00F4A914207D1C16941F002010B
:1019D000C161C06900F00200009008BDC16941F01A
:1019E0000101C161C069002200F0010000900121E5
:1019F0001C20FFF743FCBDE808401C20FFF730BC6B
:101A0000001002400004004090F83D10012901D070
:101A100001207047022180F83D100168CA6842F039
:101A20000102CA6000680D4988420BD0B0F1804FB6
:101A300008D00B49884205D00A49884202D00A4999
:101A4000884204D1816801F00701062903D00168AA
:101A500041F001010160002070470000002C0140AE
:101A60000004004000080040000C004070B504462F
:101A700090F83C000025012817D0012684F83C602E
:101A8000022084F83D002068826822F0770222F468
:101A90007F4282600868502838D00DDC20284FD063
:101AA00005DC90B3102811D14AE0022070BD302827
:101AB00046D040280AD13BE060282FD070280DD0B6
:101AC000B0F5805F03D0B0F5005F12D0012584F837
:101AD0003D60002084F83C00284670BDCB68D1E909
:101AE0000121206800F083FF2068816841F07701C0
:101AF00009E0CB68D1E90121206800F078FF206877
:101B0000816841F480418160E1E719E0CA68496871
:101B1000206801F021F85021206806E0CA68496871
:101B2000206801F02AF86021206800F06AFFCEE703
:101B3000CA684968206801F00FF840212068F4E77E
:101B4000226801461046F0E7704770B50446006809
:101B500001694FF00005C943890715D4C168C9431D
:101B6000890711D4E91E016101202077206880696E
:101B70008007204602D0FFF7E7FF04E000F0CAF834
:101B8000204600F05CF9257720680169C9434907C0
:101B900017D4C168C943490713D46FF00401016128
:101BA000022020772068806910F4407F204602D010
:101BB000FFF7CAFF04E000F0ADF8204600F03FF95F
:101BC000257720680169C943090716D4C168C9434C
:101BD000090712D46FF00801016104202077206802
:101BE000C0698007204602D0FFF7AEFF04E000F096
:101BF00091F8204600F023F9257720680169C94350
:101C0000C90617D4C168C943C90613D46FF01001BF
:101C10000161082020772068C06910F4407F2046C9
:101C200002D0FFF791FF04E000F074F8204600F0C6
:101C300006F9257720680169C943C90708D1C16839
:101C4000C943C90704D1891E0161204600F04CF93F
:101C500020680169C943090609D4C168C943090656
:101C600005D46FF0800101612046FFF73BFE20683C
:101C70000169C943490609D4C168C943490605D465
:101C80006FF040010161204600F068F920680169A9
:101C9000C94389060BD4C168C943890607D46FF0CC
:101CA000200101612046BDE87040FFF71CBE70BDF9
:101CB00000B585B000210091019102910391006867
:101CC000104988421BD11048816941F0100181619F
:101CD0008069694600F0100004904FF40070009095
:101CE0000220019003900948FFF762F90848416813
:101CF00021F4406141F0E06141F44061416005B090
:101D000000BD00000004004000100240001001402F
:101D100000000140704770B5044690F83C00002672
:101D20000D4601280FD0012084F83C006AB1042A36
:101D30001DD0082A2FD00C2A3FD00126002084F87D
:101D40003C00304670BD022070BD206800F062FE8D
:101D50002068816941F0080181612068816921F072
:101D600004018161206881692A69114311E02068BA
:101D700000F078FE2068816941F40061816120688B
:101D8000816921F480618161206881692A6941EA61
:101D900002218161D2E7206800F090FE2068C169CD
:101DA00041F00801C1612068C16921F00401C161ED
:101DB0002068C1692A69114311E0206800F0AAFE79
:101DC0002068C16941F40061C1612068C16921F4E2
:101DD0008061C1612068C1692A6941EA0221C1614B
:101DE000ACE710B5040003D094F83D0010B107E053
:101DF000012010BD002084F83C00204600F01EF8B1
:101E0000022084F83D00211D206800F0A5FD01207E
:101E100084F8460084F83E0084F83F0084F84000CF
:101E200084F8410084F8420084F8430084F84400B8
:101E300084F8450084F83D00002010BD70477047CD
:101E400010B50446022249B104290ED0082913D046
:101E500094F84100012816D0012010BD94F83E00EE
:101E60000128F9D184F83E200FE094F83F000128C2
:101E7000F2D184F83F2008E094F840000128EBD12B
:101E800084F8402001E084F841200122206800F01D
:101E9000A1FD11492068884203D1426C42F40042FE
:101EA0004264206888420BD0B0F1804F08D00B49C3
:101EB000884205D00A49884202D00A49884204D1A2
:101EC000816801F00701062903D0016841F0010192
:101ED0000160002010BD0000002C01400004004003
:101EE00000080040000C004000681549884201D1FC
:101EF000144822E0B0F1804F05D01349884205D143
:101F00001048103019E00F48083016E00F49884299
:101F100002D10C48183010E00D49884202D109481E
:101F200020300AE00B49884202D10648283004E0FC
:101F30000949884203D10348303040680047704760
:101F4000002C014014000020000400400008004064
:101F5000000C00400010004000140040704738B5ED
:101F6000044690F84200202801D0022038BD61B11B
:101F70005AB10120206300206063204600F088FFF2
:101F80000028F3D1216B012901D0012038BD21683F
:101F90000A684968009121680C3151E8002F42F02D
:101FA000100241E80023002BF5D138BD70B505467D
:101FB00000681F4A904206D11E4C2046A4F8081122
:101FC000D4F80C2126E01C4A904206D11B4C204636
:101FD000A4F80811D4F80C211CE0194A904206D14B
:101FE000184C2046A4F80811D4F80C2112E0164A27
:101FF000904206D1154C2046A4F80811D4F80C21C3
:1020000008E0134A904211D1124C2046A4F808115E
:10201000D4F80C218430064604F582749047228857
:1020200031462846BDE87040FFF799BF70BD0000FB
:10203000003801408C0D0020004400409C0E002020
:1020400000480040AC0F0020004C0040BC100020B5
:1020500000500040CC11002070470000F8B5016826
:1020600004460868CA684B6910F00F0F4FF000056E
:1020700059D003F0010602F49077374365D0C107C9
:1020800005D0D10503D5616C41F0010161644107C0
:1020900005D5D90703D0616C41F002016164810765
:1020A00005D5D90703D0616C41F0040161640107D3
:1020B00007D502F02001314303D0616C41F00801E3
:1020C0006164616C00293AD0800604D5900602D57F
:1020D000204600F01FFE20684069616CC0F380104C
:1020E000090700D460B3204600F0DFFD2068406996
:1020F000400621D52068143050E8001F21F040012F
:1021000040E80012002AF5D1E06BA8B16D494163A7
:10211000E06BFEF7E3FC002811D0E06B416B01B0EF
:10212000BDE8F040084783060FD593060DD520463D
:10213000BDE8F84000F0EEBD2046FFF78DFFF8BD8A
:102140002046FFF789FF6564F8BD266B2023012E2A
:102150007CD1C6067AD5D60678D50868486800903E
:1021600048694FF00206400640D5E16B08684068B8
:102170000004000CE8D0A28D8242E5D9E085886990
:1021800020282DD020680C3050E8001F21F48071E9
:1021900040E80012002AF5D12068143050E8001FF2
:1021A00021F0010140E80012002AF5D12068143026
:1021B00050E8001F21F0400140E80012002AF5D14C
:1021C00084F84230256320680C3050E8001F21F06D
:1021D000100140E80012002AF5D1E06BFEF75AFC2E
:1021E0006663A08DE18D401A81B22AE0A08DE18D59
:1021F000401A81B2E08D0028A6D00029A4D0226820
:102200000C3252E8000F20F4907042E80007002FD3
:10221000F5D12068143050E8002F22F0010240E888
:102220000027002FF5D184F84230256320680C3058
:1022300050E8002F22F0100240E80023002BF5D1D7
:1022400066632046FFF7B2FEF8BDFFE705062BD513
:10225000150629D594F841002128F5D1A068B0F5DC
:10226000805F01D12069B0B1206A411C21622168E0
:1022700000784860E08C401E0004000CE084E3D14C
:102280002068C16821F08001C1602068C16841F008
:102290004001C160D8E7206A0088C0F308004860A8
:1022A000206A801C2062E5E74006CDD55006CBD5DC
:1022B000CA68204622F04002CA6084F8413000F02B
:1022C000C4F9C1E7AD2B000870B5040004D094F840
:1022D0004100002510B106E0012070BD84F8405097
:1022E000204600F023F8242084F841002068C168CB
:1022F00021F40051C160204600F06EFD20680169A4
:1023000021F4904101612068416921F02A01416175
:102310002068C16841F40051C1606564202084F8E0
:10232000410084F842006563002070BD2DE9F04350
:1023300085B0002400940194029403940546D0F8DB
:1023400000C08F488D4B8614022103224FF00409F0
:102350009C452CD1C36943F48013C361C36903F462
:1023600080130493836943F010038361836903F04E
:1023700010030493836943F0200383618069CDE9EE
:10238000006100F02000CDE9032069467D48FEF79A
:102390000FFECDE9009469467B480294FEF708FEE3
:1023A000002201213520FEF769FF35204CE0DFF8DF
:1023B000DC81774B8027C4454BD1D0F818C04CF452
:1023C000804CC0F818C0D0F818C00CF4804CCDF880
:1023D00010C0D0F818C04CF0080CC0F818C08069C4
:1023E000039200F0080004904020CDE90001694606
:1023F00099461846FEF7DCFDCDE90074B8466946FB
:1024000048460294FEF7D4FD6248416841F0E0611D
:1024100041F004014160614F5F4801C71020A7E807
:1024200011015E4847F810497C61C7E90646FEF78E
:1024300011FD08B1FEF72CFBAF630022012125201E
:102440007D62FEF71BFF2520FEF70AFF05B0BDE801
:10245000F083DFF84C81C44541D1C36943F40033B4
:10246000C361C36903F400330493836943F0040335
:1024700083618069CDE9009100F00400CDE903207B
:10248000DFF8208169464046FEF792FD0820CDE93D
:102490000004694640460294FEF78AFDDFF8FC809E
:1024A0003D4908F1440840462831C0E90014C0E91C
:1024B0000247C8F81040C8F81440C8E90646FEF7BD
:1024C000C9FC08B1FEF7E4FAC5F83C8000220121FE
:1024D0002620C8F82450FEF7D1FE2620B4E7DFF806
:1024E000C880C445B2D1D0F81CC04CF4802CC0F8D0
:1024F0001CC0D0F81CC00CF4802CCDF810C0D0F853
:1025000018C04CF0080CC0F818C08069039200F0A5
:10251000080004904FF48060CDE9000169469846B8
:102520001846FEF745FD4FF40060CDE9000469460A
:1025300040460294FEF73CFDDFF86080164908F142
:10254000880840461439C0E90014C0E90247C8F8B9
:102550001040C8F81440C8E90646FEF77BFC08B1F5
:10256000FEF796FAC5F83C80002201212720C8F822
:102570002450FEF783FE272066E70000005000404D
:1025800000100240001001400014014000380140DA
:10259000000C01400000014044000240C00C00203B
:1025A0000044004000080140004800407047704768
:1025B0002DE9F843044690F841001F4616460D46A3
:1025C000202802D00220BDE8F8837DB176B100203A
:1025D0006064212084F84100FEF7E4FDA684804673
:1025E000E684A068B0F5805F02D003E00120EAE74E
:1025F000206910B12E4600250EE000260CE0802157
:10260000204600F08DFCA0B9AEB116F8010B216890
:102610004860E08C401EE084E08C43464FF00002AE
:1026200000970028EBD14FF04001204600F078FCE5
:1026300030B10320C7E735F8020BC0F30800E6E726
:10264000202084F841000020BDE77047FEE700002D
:10265000114808B5416941F001014161406900221A
:1026600000F00100009011460D20FEF707FE0D203E
:10267000FEF7F6FD002211460E20FEF7FFFD0E20AC
:10268000FEF7EEFD002211461020FEF7F7FDBDE833
:1026900008401020FEF7E4BD0010024030B585B0C0
:1026A000002000900190029003902748816941F03A
:1026B00020018161816901F020010491816941F06B
:1026C00004018161816901F004010491816941F093
:1026D00008018161816901F008010491816941F07B
:1026E000100181618069194D00F0100004900122F1
:1026F000C0212846FEF751FD01244020CDE9000409
:102700000294694628460394FEF752FC8020CDE9E6
:1027100000040220CDE9020469462846FEF748FC81
:10272000E00300900A48CDE9010469462846FEF717
:102730003FFC002211462820FEF7A0FD2820FEF7CE
:102740008FFD05B030BD00000010024000080140C0
:102750000000211010B586B00024174800940194A1
:102760000294039404944FF0804105940160472142
:10277000C0E9011440F2E731C0E90314802181610E
:10278000FFF7ECF808B1FEF783F94FF480500090A2
:1027900069460948FFF76AF908B1FEF779F9049428
:1027A00004A905480594FFF79FF8002801D0FEF71B
:1027B0006FF906B010BD0000100B002010B58EB0F0
:1027C00000240794089409940A940B941C216846E9
:1027D0000C94FDF7F8FE20481E4901600121C0E974
:1027E000011440F2E731C0E9031480218161FFF751
:1027F000B5F808B1FEF74CF94FF48050079007A9DF
:102800001548FFF733F908B1FEF742F91248FFF710
:10281000E8FA08B1FEF73CF90B940BA90E480C94AA
:10282000FFF762F808B1FEF733F9602000904FF42B
:10283000FA70CDE901040C22694607480494FFF7B9
:102840006AFA08B1FEF724F90348FFF731FA0EB02F
:1028500010BD000000040040580B00200C4810B5CB
:102860000A4901604FF4E1314160002181600C228E
:10287000C160C0E904128161C161FFF725FD002834
:1028800003D0BDE81040FEF703B910BD0050004072
:10289000A00B00200C4810B50A4901604FF41651F6
:1028A0004160002181600C22C160C0E90412816195
:1028B000C161FFF709FD002803D0BDE81040FEF715
:1028C000E7B810BD00380140E80B00200C4810B5F7
:1028D0000A4901604FF416514160002181600C22C9
:1028E000C160C0E904128161C161FFF7EDFC0028FD
:1028F00003D0BDE81040FEF7CBB810BD0044004047
:10290000300C00200C4810B50A4901604FF41651F4
:102910004160002181600C22C160C0E90412816124
:10292000C161FFF7D1FC002803D0BDE81040FEF7DD
:10293000AFB810BD00480040780C0020FEE7FEE76D
:1029400070477047FEF734BC704700000148FFF73E
:10295000FCB80000100B0020F0B50268194B1A4CAF
:102960001A4D1B4E4FF08047984207D0B84205D011
:10297000A04203D0A84201D0B04204D122F0700C92
:102980004A6842EA0C02984207D0B84205D0A042F9
:1029900003D0A84201D0B04203D122F44074CA68E7
:1029A00022434C6922F08002224302608A68C2629C
:1029B0000A688262984201D109690163012141617B
:1029C000F0BD0000002C0140000400400008004061
:1029D000000C004010B501F01F030121046A99406A
:1029E0008C430462016A9A401143016210BD10B524
:1029F000846842EA032224F47F440A43224382602B
:102A000010BD826822F070020A4342F00701816023
:102A10007047000030B5036A026A22F001020262C8
:102A20004268846924F073050C682C4323F0020586
:102A30008B682B430A4DA8420BD123F00805CB68C5
:102A400022F440722B434D6923F0040315438A6935
:102A50002A434260846149684163036230BD0000DB
:102A6000002C014030B5026A036A23F010030362B0
:102A7000436884690D6824F4E64444EA05248D68BB
:102A800022F0200242EA05120B4DA8420ED1CD6879
:102A900022F0800242EA05124D6923F4406343EAC2
:102AA00085038D6922F0400243EA85034360846117
:102AB00049688163026230BD002C014030B5036A71
:102AC000026A22F4807202624268C46923F40073CD
:102AD00024F073050C682C438D6843EA05230C4DE4
:102AE000A8420ED1CD6823F4006343EA05234D6963
:102AF00022F4405242EA05128D6923F4806342EACF
:102B000005124260C4614968C163036230BD0000C0
:102B1000002C014030B5046A026A22F4805202623D
:102B20004268C3690D6823F4E64343EA05238D68D0
:102B300024F4005444EA0534064DA84204D14D69FA
:102B400022F4804242EA85124260C361496801640E
:102B5000046230BD002C014010B5036A046A24F001
:102B600001040462846924F0F00444EA021423F0AE
:102B70000A020A438461026210BD10B5036A046A46
:102B800024F010040462846923F0A00324F4704448
:102B900044EA023243EA01118261016210BD000081
:102BA0000148FFF75BBA0000A00B002010B5406A97
:102BB0000021C185C184FFF74FFA10BD70B5446A8A
:102BC0002068406994F84110C0F3C0100025212905
:102BD00004D118B1E584204600F08EF820684069E1
:102BE00094F84210C0F38010222904D118B1E58571
:102BF000204600F05AF8606C40F0100060642046F7
:102C0000FFF72AFA70BD10B50146406A09680968E5
:102C10004FF0000289062ED4C28501680C3151E8BC
:102C2000003F23F4807341E80034002CF5D10168A3
:102C3000143151E8003F23F0010341E80034002C37
:102C4000F5D10168143151E8003F23F0400341E819
:102C50000034002CF5D1202180F84210016B0129AD
:102C600009D101680C3151E8003F23F0100341E81D
:102C70000034002CF5D14263016B012902D0FFF72B
:102C800095FC10BD818DFFF791F910BD10B5406A1C
:102C900001214163016B012902D0FFF788FC10BDBF
:102CA000818D4908FFF782F910BD01680C3151E8A8
:102CB000002F22F4907241E80023002BF5D1016827
:102CC000143151E8002F22F0010241E80023002BCB
:102CD000F5D1016B012909D101680C3151E8002FB0
:102CE00022F0100241E80023002BF5D1202180F8CA
:102CF000421000210163704701680C3151E8002F38
:102D000022F0C00241E80023002BF5D1202180F8F9
:102D10004110704708B590F84210222901D00220D6
:102D200008BD82684FF480539A4201D1016921B1F4
:102D3000816A9A421BD04AB10AE00268816A5268ED
:102D4000C2F308020A80816A891C08E0026972B134
:102D50000268526802F07F020A70816A491C81622F
:102D6000C18D491E0904090CC18503D01BE002680E
:102D70005268F1E70168CA6822F02002CA6001685F
:102D8000CA6822F48072CA6001684A6922F00102AE
:102D90004A61202180F8421000214163026B012A20
:102DA00003D0FFF703FC002008BD016301680C316C
:102DB00051E8002F22F0100241E80023002BF5D14A
:102DC00001680A68D20602D50A6849680091818DB7
:102DD000FFF7ECF8E7E7000070B50446006801690A
:102DE000E26821F44051114301612169A068084360
:102DF000616908432168CA6841F20C639A4302433F
:102E0000CA6020684169A26921F44071114341619F
:102E10001E492068884202D1FEF708FB01E0FEF758
:102E2000F5FA00EBC00101EB00126068642180003C
:102E3000B2FBF0F3B3FBF1F36FF018067343B2FB90
:102E4000F0F5B2FBF0F605EB8305322303EB051535
:102E5000B5FBF1F5B6FBF1F605F0F00505EB06154F
:102E6000B2FBF0F6B2FBF0F0B0FBF1F06FF018023D
:102E7000504306EB800003EB0010B0FBF1F021683B
:102E800000F00F002844886070BD00000038014049
:102E900038B5816204468285002013466064222290
:102EA00084F84220E56B1B4AAA62E56B1A4AEA6283
:102EB000E56B1A4A2A63E26B50630A462168E06BAD
:102EC000091DFEF705F82068016840680090206938
:102ED00048B120680C3050E8001F41F4807140E890
:102EE0000012002AF5D12068143050E8001F41F08C
:102EF000010140E80012002AF5D12068143050E8A2
:102F0000001F41F0400140E80012002AF5D10020E6
:102F100038BD0000072C00088D2C0008BD2B0008D0
:102F20002DE9F041984617460E460446069D27E0D7
:102F3000681C25D02DB1FEF735F9A0EB0800A8429A
:102F40001ED920680C3050E8001F21F4D07140E8F1
:102F50000012002AF5D12068143050E8001F21F03B
:102F6000010140E80012002AF5D1202084F8410038
:102F700084F84200002084F840000320BDE8F0817E
:102F80002068006836EA000004D00020B842CFD0A4
:102F90000020F3E70120F9E70148FFF75FB80000E0
:102FA000E80B00200148FFF759B80000300C002062
:102FB0000148FFF753B80000780C0020FEE700003E
:102FC00070B5194C05460E462079C00707D1201D63
:102FD00000F0D6FC18B1201D2661AFF300806178A7
:102FE000002039B1114AA168126835F821109162A8
:102FF00060700FE0E168491CE160A26805EB8203A4
:103000005B8803EB83038B4204D80121521CC4E983
:10301000022061702269A168B1EB520F02D3A06057
:10302000012070BD002070BD4C000020580B002016
:10303000FF23FFF7BDBA2DE9F04100250E460746F4
:103040002C460D60FDF707FA014630200FE03055A1
:10305000641C30557A5D641C00EB121232557A5DA7
:10306000641C02F00F0230323255641C6D1C8D421C
:10307000EDDBBDE8F081000070B594B03821684602
:10308000FDF7A1FA14210EA8FDF79DFA01250024F1
:103090002804CDE902040226CDE9086000950595D3
:1030A00001944FF4E010CDE90A046846FEF714FAE3
:1030B00008B172B6FEE70F20CDE90E064FF480602E
:1030C000CDE9104002210EA81294FEF709F908B1CB
:1030D00072B6FEE70148056714B070BD00004242B9
:1030E00001460248406D00F01FB900007C1300202B
:1030F00001460248406D5C3000F06CB97C13002042
:10310000014800F09FBB00007C130020154B0268B3
:103110009A4201D1144A0AE0B2F1804F05D0134B14
:103120009A4207D1104A103201E00F4A0832C2E930
:10313000000170470E4B9A4202D10B4A1832F6E753
:103140000C4B9A4202D1084A2032F0E70A4B9A42CD
:1031500002D1054A2832EAE7084B9A42E9D1024AED
:103160003032E4E7002C014014000020000400404D
:1031700000080040000C0040001000400014004017
:1031800010B514491448FFF7C1FF1422134914481D
:1031900000F032F817221349134800F02DF80022EE
:1031A0001146124800F028F81148002200F1A0044E
:1031B00004216065A03000F0A5FB606D00F0F6F919
:1031C0000548FEF721FCBDE810400C210948FEF738
:1031D00037BE000001310008100B0020F13000085C
:1031E000300C0020E1300008780C0020A00B0020FB
:1031F000DC120020580B002030B41E4C0368A342A0
:1032000007D11D4BC3F80C111860A3F8042119460F
:103210002AE01A4CA34207D1194BC3F80C111860CD
:10322000A3F8042119461FE0164CA34207D1164B00
:10323000C3F80C111860A3F80421194614E0134CCC
:10324000A34207D1124BC3F80C111860A3F8042154
:10325000194609E00F4CA3420AD10F4BC3F80C11D9
:103260001860A3F80421194630BC8431FEF777BEFC
:1032700030BC7047003801408C0D002000440040F5
:103280009C0E002000480040AC0F0020004C004085
:10329000BC10002000500040CC11002010B50446A6
:1032A00050F8051B17228431FDF7F4F8206890F8D8
:1032B0009710843029B9017D19B9417D09B9817D03
:1032C00049B3817884F8341010F8031B84F8331064
:1032D000417884F83510817884F836104168C4F854
:1032E00037108168C4F83B108189A4F83F10817BB6
:1032F00084F841100069C4F842000A490120207195
:1033000008781722401C0870611D04F11C00BDE8FC
:103310001040FDF7BFB81721601DBDE81040FDF754
:1033200030B9000010000020FFF7B8BF09680E4A4E
:10333000914201D10D4912E00D4A914201D10D494E
:103340000DE00D4A914201D10C4908E00C4A91422E
:1033500001D10C4903E00C4A914201D10B490160B3
:103360000021017170470000003801408C0D0020E1
:10337000004400409C0E002000480040AC0F00209C
:10338000004C0040BC10002000500040CC11002038
:1033900010B58168044614220C308431FDF7BFF863
:1033A000A16811F8840FFF2809D14A78601C891C94
:1033B000FDF770F8601CFDF74EF805490880A0681D
:1033C000142200218430FDF7AAF80120207010BDDE
:1033D00012000020FFF7DCBF09680E4A914201D1BC
:1033E0000D4912E00D4A914201D10D490DE00D4AFF
:1033F000914201D10C4908E00C4A914201D10C499B
:1034000003E00C4A914201D10B4981600021017017
:1034100070470000003801408C0D0020004400403F
:103420009C0E002000480040AC0F0020004C0040E3
:10343000BC10002000500040CC11002010B5044604
:1034400000F15D017C3000F081F9010006D0172207
:1034500004F18000FDF71EF8012010BD002010BD12
:1034600010B5044600F18F017C3000F086F914F8A5
:10347000970F401E207010BDFEB500F142010446BA
:103480007C300D46064600F061F908B10020FEBD13
:1034900004F1370094F8367094F8353094F83420FD
:1034A00014F8331F0097CDE90105304600F09DF96F
:1034B00014F84D0B04F84C0914F8010B84F84C0077
:1034C00014F8020B84F84B0014F8010C84F84C003B
:1034D000D4F80B10A1652168C4F84D106168C4F8D8
:1034E000511021895720A4F85510A17A015594F85C
:1034F0006000401C84F860000120FEBD30B587B03C
:103500000446162518216846FDF75DF8A5208DF8BC
:10351000000001208DF80100132204F180010DF15B
:103520000200FCF7B7FF11208DF8150054F89C0F2E
:103530002A466946001DFCF7F2FF20682A460A2346
:10354000A0F80A51206801460068091DFFF730F80D
:1035500007B030BD30B587B004461625182168463F
:10356000FDF731F8A5208DF8000002208DF801004C
:10357000132204F180010DF10200FCF78BFF1120F2
:103580008DF8150054F89C0F2A466946001DFCF77B
:10359000C6FF20682A460A23A0F80A51206801467F
:1035A0000068091DFFF704F807B030BD10B50446E8
:1035B0000B49FFF7BBFE0B4904F15C00FFF70CFF62
:1035C00004F17C0000F00EF90748C4F89C000020CC
:1035D00004F8970F0121A170E170607010BD000028
:1035E000780C0020300C0020CC11002010B50C46C7
:1035F0000846FCF730FF214682B2BDE81040014882
:10360000FFF716BDE80B002070B5E8B00E46054682
:103610001446642132A8FCF7D6FF64214BA8FCF7BE
:10362000D2FF0020649065906690C8216846FCF740
:10363000CAFF20686490606865902089ADF89801A1
:10364000A07A8DF89A014BA93046FFF7F4FC32A915
:1036500064A8FFF7F0FC20A12846FFF7C7FF4FF44E
:10366000FA742046FDF76CFC1EA12846FFF7BEFF4A
:103670002046FDF765FC20A12846FFF7B7FF20464E
:10368000FDF75EFC1FA12846FFF7B0FF2046FDF7BF
:1036900057FC32AA21A16846FCF76CFE6946284611
:1036A000FFF7A4FFC8216846FCF78DFF2046FDF711
:1036B00047FC4BAA1DA16846FCF75CFE69462846FC
:1036C000FFF794FF2046FDF73BFC1FA12846FFF7BC
:1036D0008DFF68B070BD000041542B434D47463DFF
:1036E000310D0A0041542B435343533D225543535C
:1036F00032220D0A0000000041542B435343413F46
:103700000D0A000041542B43534D503D31372C31AD
:1037100036372C302C32350D0A00000041542B4333
:103720004D47533D222573220D0A000036304138A3
:1037300037363834394138433842433137383031FD
:1037400036363246257300001A000000006811E08A
:10375000C27B0B789A420BD1027C4B789A4207D1FC
:10376000427C8B789A4203D1827CCB789A4203D0F8
:10377000D0F813000028EBD17047F0B4034600687E
:103780000C780246C57BA54228D1057C4E78B5420F
:1037900024D1457C8E78B54220D1857CCE78B54247
:1037A0001CD1D0F81310196012E0C37BA34212D1D0
:1037B000037C4D78AB420ED1437C8D78AB420AD16D
:1037C000837CCD78AB4206D1D0F81310C2F8131029
:1037D000F0BC00F0ADB80246D0F813000028E4D1E8
:1037E000F0BC70470021016070472DE9F047884622
:1037F000DDE909A51E46174604462946DDF8209056
:10380000FFF7A4FF00281BD1172000F095F880F8DF
:1038100000804770867080F80390DAF800204260DC
:10382000DAF804208260BAF8082082819AF80A1037
:1038300081732968C0F80F102168C0F81310206048
:10384000BDE8F08770B50446406D2C4D002690F819
:103850009A1090F89900814200D02E70297850EA91
:10386000010202D0012804D00AE0244812218C3041
:1038700003E039B921480A211430FFF7A1FB287071
:10388000287818B11E49012009688862606D10F817
:10389000991F417094F8510004EBC0004168491C25
:1038A000416094F85100002827D1606D017999B1E9
:1038B000FFF7E2FD70B1606D90F89910012906D113
:1038C00000F1840200F18F014830FFF79DFE606D2A
:1038D000FFF714FE606D0671606D90F85C100029B2
:1038E0000BD0FFF7ABFD28B1606DFFF733FE606DC5
:1038F000FFF7B6FD606D80F85C6070BD4C00002085
:10390000580B002010B580F85010002180F851208D
:103910000B4605E000F8313000EBC104491C636040
:1039200090F850408C42F5DC012100F8321010BDB7
:1039300010B5FCF7A6FE10BD10B5040007D1012498
:1039400005E0FCF76BFE006800B90448804720469C
:10395000FCF768FE0028F4D010BD0000370700080F
:103960000907090E002804DB00F1E02080F80014AC
:10397000704700F00F0000F1E02080F8141D704740
:10398000016809B1002070470121016008467047B5
:10399000FDF716FCFFF770FBFEF780FEFEF758FE02
:1039A000FEF75CFFFEF776FFFEF790FFFEF7AAFF3B
:1039B000FEF7D0FEFEF702FFFFF7E2FBFEE7000096
:1039C00004050607080900000000000D01020304B9
:1039D00005060708090A0B0C0D0E0F100000000069
:1039E00000000000010203040607080900000000AF
:1039F00001020304143A000800000020100B00002C
:103A00008C010008B83B0008100B0020282700009C
:103A1000F001000850070100000010000100043A06
:103A200024F4000103100101141006500032004775
:103A300004124304923C0C10044300647A320A0CD2
:103A4000011E202118F23508326414A110322A1404
:103A500041581006900019008804127904126C0C69
:103A600012D97C525A0C126C50F004000096249229
:103A7000F22461386120612C12B6449200100110CA
:103A800060022F4B5C100400001464323204417059
:103A9000C10C21B0525A0801182881B821A856A299
:103AA00008012E58414421882190254C023B324484
:103AB0006188A19C41A4021164144178D25ACC615E
:103AC00030168858500400001E9C45102130565076
:103AD000DC3250044110255C296C211432470C293A
:103AE00050D205144504124310123C1452432C4189
:103AF00050E158721964725A2441C0257C765AA448
:103B000021D82538026B19A812351C410401121462
:103B100041A0452072640421A4AD60031227303215
:103B20002A0401180C923C68012030BE19A40396A7
:103B3000434C5243E06578451041187E43E00370E2
:103B40000419002F44212C41AC0134B80128E401B0
:103B500016B4011ACC6DD4040E354378030DFFD092
:103B6000030DFFD0030DFFD0030D9BD003011A30CE
:103B7000011C446DEC088DB4040E273C400505384B
:103B8000A029740D2474050E23327405250C5E3CA7
:103B900060090D4A70056DC8090D286C0525944112
:103BA000E06D340A6D7C050512A452270401161835
:083BB000C5A40300050000009C
:04000005080001519D
:00000001FF
