S31508000000A00E002019020008D5290008BD270008FF
S31508000010D12900089D050008252E000800000000CB
S31508000020000000000000000000000000DD290008B4
S31508000030C505000800000000D9290008E1290008C4
S3150800004033020008330200083302000833020008AE
S31508000050330200083302000833020008330200089E
S31508000060330200083302000833020008330200088E
S3150800007033020008A1050008AD0500083302000890
S31508000080B9050008330200083302000833020008E5
S31508000090330200083302000833020008330200085E
S315080000A0330200083302000833020008330200084E
S315080000B0E929000833020008330200083302000861
S315080000C0330200083302000833020008330200082E
S315080000D033020008012E00080D2E0008192E00080C
S315080000E0330200083302000833020008000000004B
S315080000F000000000000000000000000000000000F2
S315080001000000000000000000330200083302000867
S3150800011033020008F52900083302000833020008F4
S3150800012033020008330200083302000833020008CD
S315080001303302000800000000000000003302000837
S3150800014033020008330200083302000833020008AD
S3150800015000F002F800F050F814A696E8000CB24435
S31508000160B344DA4501D100F047F8BAE80F000FA604
S3150800017096E83000A5EB040504EB0607AAEB07048E
S31508000180A7F101074FEA15154FEA3414A4F1010443
S31508000190AC4201D300F030F813F0010F18BFFB1A78
S315080001A043F0010300F001F8DBE71847442F00008D
S315080001B0642F0000103A24BF78C878C1FAD85207CD
S315080001C024BF30C830C144BF04680C6070470000C3
S315080001D0704700000023002400250026103A28BF97
S315080001E078C1FBD8520728BF30C148BF0B6070479B
S315080001F01FB51FBD10B510BD00F065F91146FFF714
S31508000200F7FF02F011FF00F083F903B4FFF7F2FFDE
S3150800021003BC00F045F90000094880470948004733
S31508000220FEE7FEE7FEE7FEE7FEE7FEE7FEE7FEE798
S31508000230FEE7FEE704480549054A064B70470000F5
S31508000240E529000851010008A0080020A00E00209A
S31508000250A00A0020A00A002053EA020C00F06980D8
S315080002602DE9F04B4FF00006002B1FBFB3FA83F5BC
S3150800027003FA05F424FA05F65E4012BF1643B2FAED
S3150800028082F502FA05F4C5F120051EBF22FA05FC1F
S3150800029044EA0C04203556EA044C4FEA144418BFC5
S315080002A0641C4FF000084FF00009904271EB030CF4
S315080002B039D3002919BFB1FA81F701FA07F6B0FA5E
S315080002C080F700FA07F6C7F120071EBF20FA07FCD9
S315080002D046EA0C062037B6FBF4FCA7EB0507103FE9
S315080002E007F01F0BCBF120062CFA06F60CFA0BFBCF
S315080002F044BFB3460026202FA4BF5E464FF0000B2E
S315080003005BEA060C08BF4FF0010B19EB0B0948EB2B
S315080003100608ABFB027C06FB02CC0BFB03CCC01B1E
S3150800032071EB0C01C1E70B46024641464846BDE85B
S31508000330F08B13B5084318BF4FF0FF300146AFF3F3
S315080003400080BDE81C407047032A40F2308010F058
S31508000350030C00F0158011F8013BBCF1020F624452
S3150800036098BF11F801CB00F8013B38BF11F8013BE3
S31508000370A2F1040298BF00F801CB38BF00F8013B90
S3150800038011F0030300F05A80083AC0F0088051F8CB
S31508000390043B083A51F804CBA0E80810F5E7121D0B
S315080003A05CBF51F8043B40F8043BAFF30080D2072A
S315080003B024BF11F8013B11F801CB48BF11F8012BF6
S315080003C024BF00F8013B00F801CB48BF00F8012B19
S315080003D070474FF0000200B51346944696462039FA
S315080003E022BFA0E80C50A0E80C50B1F12001BFF4E0
S315080003F0F7AF090728BFA0E80C5048BF0CC05DF846
S3150800040004EB890028BF40F8042B08BF704748BF93
S3150800041020F8022B11F0804F18BF00F8012B704707
S3150800042070477047704710B5002000F03FF8FFF797
S31508000430E1FEBDE81040012000F032B810B5203AC0
S31508000440C0F00B80B1E81850A0E81850B1E8185071
S31508000450A0E81850203ABFF4F5AF5FEA027C24BF43
S31508000460B1E81850A0E8185044BF18C918C0BDE82C
S3150800047010405FEA827C24BF51F8043B40F8043BF5
S3150800048008BF7047D20728BF31F8023B48BF11F8AA
S31508000490012B28BF20F8023B48BF00F8012B704704
S315080004A001491820ABBEFEE72600020010B500F091
S315080004B03DF8BDE8104000F034B800000048704729
S315080004C01000002070477546FFF7F8FFAE46050096
S315080004D06946534620F00700854618B020B5FFF751
S315080004E0A9FEBDE820404FF000064FF000074FF088
S315080004F000084FF0000BAC46ACE8C009ACE8C009F0
S31508000500ACE8C009ACE8C00921F007018D46704780
S3150800051010B50446AFF300802046BDE81040FFF74B
S3150800052074BE002801D0FFF7BBBF704710B5002185
S3150800053002A000F013F8012010BD000053494741FE
S315080005404252543A2041626E6F726D616C20746536
S31508000550726D696E6174696F6E00000070B505464C
S315080005600C460A2000E06D1C00F011F835B1287819
S315080005700028F8D102E0641C00F009F814B12078CC
S315080005800028F8D1BDE870400A20AFF3008008B50E
S3150800059069468DF800000320ABBE08BDFEE70000E3
S315080005A040F2EC60C2F2000000F0D0B840F264609D
S315080005B0C2F2000000F0CAB840F2A860C2F2000019
S315080005C000F0C4B870470000EFF3108072B600BFA1
S315080005D0FEE70000014690F82100022816D10868B7
S315080005E0D1E90FC3026822F00E020260026822F007
S315080005F001020260012000FA03F2CCF8042081F817
S3150800060021000020002281F82020704704208863FA
S315080006100120002281F820207047000090F8211060
S31508000620022927D1026840F2040C1368C4F2020CAE
S3150800063023F00E03136013680CF17C018A4223F041
S31508000640010111601AD940F20841C4F202018A4236
S3150800065048D040F21C41C4F202018A4246D040F218
S315080006603041C4F202018A4244D14FF48073CCF877
S3150800067000345CE004218163012070474321C4F201
S3150800068002018A420EDD6B21C4F202018A421BDC9A
S315080006904421C4F202018A423CD05821C4F2020124
S315080006A08A4233E00821C4F202018A4236D01C216C
S315080006B0C4F202018A4237D03021C4F202018A42CA
S315080006C024D14FF4807230E06C21C4F202018A42D0
S315080006D026D08021C4F202018A4217D14FF08072D7
S315080006E023E000BF0123CCF8003420E01023CCF827
S315080006F000341CE00CF588614FF480338A4208BF49
S315080007004FF48053CCF8003411E000BF4FF4803228
S315080007100BE000BF4FF4805207E000BF012204E05F
S315080007204FF4801201E000BF1022CCF8002001210E
S3150800073080F82110426B002180F8201022B180B584
S3150800074090470021BDE880400846704710B5D0E9BB
S315080007500FE3D0F800C0DEF80020DCF80010DA401D
S3150800076054072DD511F004042AD0DCF800108906A8
S3150800077005D4DCF8001021F00401CCF8001004229E
S31508000780C4F2020202F17C018C454BD940F20841C1
S31508000790C4F202018C4500F0AF8040F21C41C4F25D
S315080007A002018C4500F0AC8040F23041C4F20201EF
S315080007B08C4540F0A9804FF48061C2F80014F3E03C
S315080007C0940745D511F0020442D0DCF800108906DA
S315080007D008D4DCF8001021F00A01CCF80010012139
S315080007E080F821100422C4F2020202F17C018C4531
S315080007F04CD940F20841C4F202018C4500F0B4809D
S3150800080040F21C41C4F202018C4500F0AF8040F270
S315080008103041C4F202018C4540F0AA804FF40071C1
S31508000820AEE000BF4321C4F202018C4544DD6B21D2
S31508000830C4F202018C4551DC4421C4F202018C4504
S3150800084000F0A2805821C4F202018C4568E000BF7E
S31508000850120740F1C18011F0080108BF10BDDCF88D
S31508000860001021F00E01CCF80010012101FA03F264
S31508000870CEF80420816380F82110016B002200293C
S3150800088080F8202040F09280A6E000BF4321C4F201
S3150800089002018C4548DD6B21C4F202018C4555DC0A
S315080008A04421C4F202018C4500F084805821C4F228
S315080008B002018C4572E000BF0821C4F202018C4592
S315080008C066D01C21C4F202018C456BD03021C4F2DB
S315080008D002018C4524D14FF4806164E06C21C4F296
S315080008E002018C4556D08021C4F202018C4517D1ED
S315080008F04FF0806157E000BF0421C2F8001453E0AE
S315080009004021C2F800144FE002F588634FF48021B5
S315080009109C4508BF4FF48041C2F8001444E000BF6C
S315080009204FF480213FE000BF0821C4F202018C4544
S3150800093044D01C21C4F202018C4545D03021C4F2B2
S3150800094002018C452AD14FF400713EE06C21C4F2B5
S3150800095002018C4534D08021C4F202018C451DD198
S315080009604FF0007131E000BF022109E0202107E0C5
S3150800097002F588634FF400319C4508BF4FF40051D7
S31508000980C2F8001422E000BF4FF480410BE000BF1C
S31508000990042108E04FF4800105E000BF4FF4003160
S315080009A013E000BF40211160C16AA9B1BDE810403B
S315080009B0084700BF4FF4005107E000BF022104E0DA
S315080009C04FF4001101E000BF20211160816A002266
S315080009D0002980F82020E9D110BD00000146002832
S315080009E04FF0010008BF70472DE9F04740F2000CB0
S315080009F0C4F2020C0A684FF6F8330CF5816ECBF692
S31508000A00FD73724538BF03F5806303EB020E4CF69F
S31508000A10CD43CCF6CC43AEFB033E6FF003060CF594
S31508000A20806506EA9E06D1E901A9D1F80C803CBF8B
S31508000A300025C4F20205C1E90F56022681F8216095
S31508000A40166843F6F075AE4346EA0A06D1E9045736
S31508000A5046EA090646EA0806D1E906432E4337431D
S31508000A6027433B43136000228A6381F8210081F8FB
S31508000A7020200020BDE8F0477047000090F820C00D
S31508000A80BCF1010F04BF02207047F0B54FF0010E0C
S31508000A9080F820E090F821C0BCF1010F26D14FF074
S31508000AA0020C80F821C04FF0000CC0F838C0D0E91D
S31508000AB000C4C56AC66BDCF80070102C27F0010765
S31508000AC0CCF80070006C0EFA00F070600846CCF89E
S31508000AD0043004BF10460A46CCF80800CCF80C20AF
S31508000AE0DCF8000045B140F00E000DE0002180F86A
S31508000AF020100220F0BD00BF20F00400CCF8000052
S31508000B00DCF8000040F00A00CCF80000DCF8000031
S31508000B1040F00100CCF800000020F0BD2DE9F04FB0
S31508000B2082B00E68002E00F0FD8041F20042C4F249
S31508000B300102042340F2004E904208BF03234FF6F9
S31508000B40FF7CC4F2010E009300240123C1F2100CAD
S31508000B504FF0000A4FF0000944E000BF012704F0F7
S31508000B600C030F229A402BEA020207FA03F34FEA14
S31508000B709A051A4346F825204E6840F20C45F202BB
S31508000B80DEF8082054BF22EA080242EA0802C4F244
S31508000B900105CEF808202A68B30254BF22EA0802E3
S31508000BA042EA08022A60B303DEF8042054BF22EAA8
S31508000BB0080242EA0802F303CEF80420DEF8002011
S31508000BC04FF0010354BF22EA080242EA0802CEF8AF
S31508000BD000200E680AF1010A36FA0AF204F1040442
S31508000BE000F0A08003FA0AFB16EA0B08F1D04E685B
S31508000BF0664511DC122E55D8DFE806F0340A44485B
S31508000C00545454545454545454545454544C5000F6
S31508000C10D1F80C9046E000BF4FF6FF72C1F22102F0
S31508000C2096420FDC0022C1F2110296421AD0002227
S31508000C30C1F21202964215D00022C1F22102964252
S31508000C4010D02FE00022C1F2220296420AD00022DA
S31508000C50C1F23102964205D00022C1F23202964212
S31508000C6020D100BF8A684AB1012A14BFC0F814B05F
S31508000C70C0F810B04FF0080914E000BF4FF004099F
S31508000C8010E000BFCA6802F108090BE04FF000093E
S31508000C9008E000BFCA6802F1040903E0CA6802F165
S31508000CA00C0900BF22460646B8F5807F24BF203AC5
S31508000CB0043637680F25954027EA050509FA02F232
S31508000CC02A433260CA79D2067FF583AF41F2180308
S31508000CD0C4F202031A68AEF57E7642F001021A6083
S31508000CE01A6802F001020192019A2AF0030256F8E4
S31508000CF002B040F60002C4F20102904210D040F65B
S31508000D000042C4F2010290423FF428AF41F20002C9
S31508000D10C4F20102009F904208BF02271FE700BFE6
S31508000D2000271CE702B0BDE8F08F000040F69800E7
S31508000D30C2F200000068704740F2000040F69801D1
S31508000D40C2F20000C2F2000100780A681044086086
S31508000D507047000080B542F20000C4F20200016844
S31508000D6041F010010160032000F08CF80F2000F01C
S31508000D7005F800F027F8002080BD000070B540F2A5
S31508000D800006C2F2000640F208013278C2F20001FB
S31508000D904FF47A730968B3FBF2F20446B1FBF2F139
S31508000DA0084600F00BFC0F2C4FF0010508D838B99F
S31508000DB04FF0FF3021460022002500F037F8746016
S31508000DC0284670BD82B041F21800C4F202000168DC
S31508000DD0022241F001010160016801F0010101915F
S31508000DE00199416841F080514160406800F08050A7
S31508000DF0009000980420C4F20100016862F31A61A9
S31508000E00016002B070470000002848BF704700F034
S31508000E101F01012202FA01F11C2202EAD0004EF259
S31508000E200012CEF2000281507047000010B54EF64F
S31508000E300C5CCEF2000CDCF80030C3F3022E8EF008
S31508000E400704042C28BF0424BEF103034FF0FF3E19
S31508000E500EFA04F438BF0023A14399400EFA03F3AF
S31508000E609A43114300F00F0200F160430901043A66
S31508000E7003F564436244002848BF02F10C03197065
S31508000E8010BD00004EF60C51CEF200010A684FF66E
S31508000E90FF031A4060F30A2242F0806040F0FD70BA
S31508000EA008607047002804BF012070472DE9F04309
S31508000EB081B042F20008C4F202080446D8F80000DD
S31508000EC00D4600F0070088420CD2D8F8000020F042
S31508000ED007002843C8F80000D8F8000000F007000B
S31508000EE0A8426CD1206841F204098107C4F20209BC
S31508000EF017D5410705D5D9F8001041F4E061C9F8BE
S31508000F000010010705D5D9F8001041F46051C9F859
S31508000F100010D9F80010A26821F0F0011143C9F8B1
S31508000F200010C00742D1D8F8000000F00700A84218
S31508000F300CD9D8F8000020F007002843C8F80000AC
S31508000F40D8F8000000F00700A84238D12068410709
S31508000F5007D5D9F80010E26821F4E0611143C9F811
S31508000F600010000708D5D9F80000216920F4605060
S31508000F7040EAC100C9F80000D9F8002002F00C00C8
S31508000F80082841F20020C0F27A0072D143F2D20159
S31508000F90C2F38344C0F60001095DD2033CD440F68F
S31508000FA00010C0F23D00484363E000BF60680228B5
S31508000FB00AD001282AD159F8041C890308D401202B
S31508000FC001B0BDE8F08300BF59F8041C8901F6D5C5
S31508000FD0D9F8001021F003010843C9F80000FFF70B
S31508000FE0A5FE064641F28837D9F80000616800F088
S31508000FF00C00B0EB810F96D0FFF798FE801BB84225
S31508001000F2D9032001B0BDE8F08300BF59F8041CEB
S315080010108907D4D5DCE700BFD9F8282043F2E003D6
S3150800102002F00F02C0F600039A5CD9F82830DB03F9
S3150800103004D44843B0FBF2F015E000BFD9F82830D5
S31508001040D9F8287042F20046C7F30327C0F2F4061F
S31508001050C3F3031307FB00600133A0FB0101A3FBE5
S315080010600223FFF7F9F8A4F10D01B1FA81F1490954
S31508001070C840D9F8001043F2BA02C1F30311C0F60A
S315080010800002515C40F2080220FA01F140F2040025
S31508001090C2F200000068C2F200021160FFF76EFE9D
S315080010A0002001B0BDE8F08340F2080041F20401D7
S315080010B0C2F20000C4F202010068096843F2CA02DB
S315080010C0C1F30221C0F60002515CC8407047000017
S315080010D040F2080041F20401C2F20000C4F2020123
S315080010E00068096843F2CA02C1F3C221C0F60002C9
S315080010F0515CC84070470000002804BF01207047B3
S315080011002DE9F04182B00446007841F20006C00796
S31508001110C4F2020627D0706800F00C0004281BD021
S31508001120706800F00C00082802D17068C00313D458
S31508001130A068002800F08881B0F5A02F00F09C81F7
S31508001140B0F5803F00F09C81306820F48030306034
S31508001150306820F4802096E13068800303D5A068C3
S31508001160002800F0D981207880071BD5706810F018
S315080011700C0F09D0706800F00C00082840F08A802F
S315080011807068C00300F186803068800703D56069FF
S31508001190012840F0C1813068A16920F0F80040EAD2
S315080011A0C10030602078000734D42078400749D43D
S315080011B0E06A002800F098817168C90308D571684B
S315080011C001F00C01082903D1F16AC90300F1A481D1
S315080011D0022840F0CF803068C00006D5F06A616BFF
S315080011E000F0F000884240F097816827C4F2422751
S315080011F000203860FFF79AFD054600BF30680001F9
S3150800120040F15481FFF792FD401B64284FF003001C
S31508001210F4D9CFE1E06900286AD06820C4F24220F8
S315080012200121C0F81814FFF781FD0546706A80078A
S3150800123076D4FFF77BFD401B0228F7D9032002B0BE
S31508001240BDE8F081F0695FEAC00808D4F06940F0AB
S315080012508050F061F06900F080500090009847F2E5
S315080012600007C4F200073868C0052FD4386840F470
S3150800127080703860FFF75AFD054600BF3868C0051C
S3150800128024D4FFF753FD401B6428F7D9032002B086
S31508001290BDE8F0816069002840F26800C4F2422087
S315080012A000F08280012140F8681CFFF73FFD0546E3
S315080012B0306880073FF56FAFFFF738FD401B0228FF
S315080012C0F6D9032002B0BDE8F08100BF20690028E6
S315080012D07CD0052800F09480012800F09580306ABB
S315080012E020F001003062306A20F004008FE000BF71
S315080012F06820C4F242200021C0F81814FFF716FD32
S31508001300054600BF706A80077FF54FAFFFF70EFDF1
S31508001310401B0228F6D9032002B0BDE8F08100BFC1
S3150800132040F20800C2F20000006844F6D351C1F248
S315080013306201A0FB0101480A019000BF00BF0198A5
S31508001340411E002801913FF430AF00BF0198411EAD
S31508001350002801913FF429AF00BF0198411E0028DB
S3150800136001913FF422AF00BF0198411E0028019168
S31508001370E4D11AE7F06A002120F48030F062682090
S31508001380C4F242200160FFF7D1FC0546306800012F
S3150800139040F1AA80FFF7CAFC401B6428F6D903204F
S315080013A002B0BDE8F08100BF002140F8681CFFF7D5
S315080013B0BDFC0546306880077FF5F4AEFFF7B6FC3E
S315080013C0401B02284FF00300F4D9F3E0306A20F0FE
S315080013D001003062306A20F004003062FFF7A6FC94
S315080013E0054641F2883700BF306A800722D5FFF7E5
S315080013F09DFC401BB8424FF00300F5D9DAE000BF68
S31508001400306A40F004003062306A40F00100306211
S31508001410FFF78CFC054641F2883700BF306A800723
S3150800142008D4FFF783FC401BB842F7D9032002B063
S31508001430BDE8F081B8F1000F3FF5BAAEF06920F0CB
S315080014408050F061B4E600BF306820F48030306028
S31508001450306820F480203060FFF768FC054600BF3E
S31508001460306880037FF57FAEFFF760FC401B642879
S315080014704FF00300F4D99DE0306840F480203060D6
S31508001480306840F480303060FFF750FC054600BFF6
S31508001490306880033FF567AEFFF748FC401B6428B9
S315080014A0F6D9032002B0BDE8F08100BFF06AD4E99E
S315080014B00C1220F0F0001043F062F06A20F470601D
S315080014C00843F06201203860FFF730FC054600BF8C
S315080014D03068000108D4FFF729FC401B64284FF048
S315080014E00300F5D966E000BF256A8DB1706800F083
S315080014F00C00082814D1012D0ED07068616A00F41A
S3150800150080328A4208D1A16A00F47010884203D159
S31508001510002002B0BDE8F081012002B0BDE8F081EC
S315080015206827C4F24227002047F8080CFFF7FEFB9D
S31508001530022D05460CD100BF3068800114D5FFF78F
S31508001540F5FB401B02284FF00300F5D932E000BF37
S3150800155030688001DCD5FFF7E9FB401B02284FF015
S315080015600300F5D926E000BF606AB0F5803F09D1CF
S31508001570F16A6268E3681143F162F16A21F00F01CA
S315080015801943F1627168A26A21F474111143084380
S315080015907060012047F8080CFFF7C8FB044600BF37
S315080015A030688001B4D4FFF7C1FB001B02284FF056
S315080015B00300F5D902B0BDE8F0810000411E002005
S315080015C0B0EB116F1CBF012070474EF21002CEF22D
S315080015D0000251604EF62351CEF20001F0230B7043
S315080015E0072190601160704770470000704700003F
S315080015F090F83C20012A4FF002023BD010B580F843
S315080016003D200268D2F804E0D2F808C00C682EF033
S315080016107003234340F2FF74C4F20004A2425360ED
S3150800162012DD40F60003C4F200039A4215D042F6D2
S315080016300043C4F201039A420FD040F60043C4F2B5
S3150800164000039A4209D00DE0B2F1804F05D040F26E
S315080016500043C4F200039A4204D149682CF080037F
S31508001660194391600121002280F83D1080F83C2042
S31508001670BDE8104010467047002804BF0120704797
S3150800168010B5044690F83D0028B9002084F83C00BF
S31508001690204600F06FF8022084F83D00206840F2EA
S315080016A0FF7142F6004C0268C4F2000140F6000ED3
S315080016B0C4F2010C8842C4F2000E17DD70451ED034
S315080016C060451CD040F60043C4F20003984216D089
S315080016D088421ADD704521D060451FD040F600418A
S315080016E0C4F20001884219D01CE000BFB0F1804F57
S315080016F005D040F20043C4F200039842E8D1A3683B
S3150800170022F070021A438842E4DCB0F1804F05D01B
S3150800171040F20041C4F20001884203D1216922F453
S3150800172040720A43A36922F08001D4F804E0E26813
S31508001730194360450160C262C0F828E002D16169B8
S31508001740CCF8301001214161002084F8461084F855
S315080017503E1084F83F1084F8401084F8411084F84D
S31508001760421084F8431084F8441084F8451084F82D
S315080017703D1010BD0068B0F1804F18BF704780B5A6
S3150800178082B041F21C00C4F202000168002241F056
S31508001790010101600068002100F001000190019834
S315080017A01C20FFF743FB1C2002B0BDE88040FFF772
S315080017B02BBB000090F83C20012A4FF0020200F0F3
S315080017C0C58080B580F83D20D0F800C04FF6777206
S315080017D0DCF8083023EA0202CCF808200B684F2B05
S315080017E028DC1F2B44DD202B45D0302B43D0402B43
S315080017F040F0AE80D1F804E0C968DCF82030DCF8A7
S31508001800202022F00102CCF82020DCF8182022F053
S31508001810F00242EA011123F00A0242EA0E02CCF86B
S315080018201810CCF82020DCF8081041F0470121F008
S31508001830300180E06F2B27DDB3F5005F48D0B3F5A4
S31508001840805F7AD0702B40F08380D1E901E3C968C4
S31508001850DCF8082043EA0E0322F47F4243EA01211A
S315080018601143CCF80810DCF8081041F0770162E063
S315080018700BB1102B6CD1DCF8081021F0700119435C
S3150800188041F0070157E000BF502B35D0602B5FD1E0
S31508001890D1F804E0C968DCF82030DCF8202022F012
S315080018A01002CCF82020DCF8182022F4704242EA14
S315080018B0013123F0A00242EA0E12CCF81810CCF837
S315080018C02020DCF8081041F0670121F0100132E011
S315080018D0D1E901E3C968DCF8082043EA0E0322F4DB
S315080018E07F4243EA01211143CCF80810DCF80810BE
S315080018F041F480411FE000BFD1F804E0C968DCF874
S315080019002030DCF8202022F00102CCF82020DCF878
S31508001910182022F0F00242EA011123F00A0242EAF4
S315080019200E02CCF81810CCF82020DCF8081041F08C
S31508001930570121F02001CCF808100022012180F877
S315080019403D10002180F83C10BDE8804010467047E5
S315080019500122F3E77047000010B5016804460869DC
S31508001960800744BFC8685FEA807039D408694007B1
S3150800197044BFC8685FEA40703ED40869000744BFA0
S31508001980C8685FEA007045D40869C00644BFC868DD
S315080019905FEAC0604AD40869C0071CBFC8685FEA26
S315080019A0C07051D10869000644BFC8685FEA006084
S315080019B052D40869400644BFC8685FEA406053D4F9
S315080019C00869800646BFC8685FEA806010BD6FF088
S315080019D0200220460A61BDE81040FFF707BE00BF97
S315080019E06FF002000861012020778869800743D0DC
S315080019F02046FFF7AFFF45E06FF0040008610220BC
S31508001A002077886910F4407F40D02046FFF7A2FF70
S31508001A1042E000BF6FF00800086104202077C8691B
S31508001A2080073DD02046FFF795FF3FE06FF0100096
S31508001A30086108202077C86910F4407F3AD020460C
S31508001A40FFF788FF3CE000BF6FF001000861204601
S31508001A5000F03EF82168A5E76FF08000086120468F
S31508001A60FFF7C2FD2168A4E76FF040000861204631
S31508001A7000F082F82168A3E7204600F025F8204602
S31508001A8000F024F82168002020776FE7204600F050
S31508001A901BF8204600F01AF82168002020776CE72A
S31508001AA0204600F011F8204600F010F821680020C2
S31508001AB0207769E7204600F007F8204600F006F888
S31508001AC021680020207766E770470000704700000D
S31508001AD0016840F6FF30C4F20000814240F270000F
S31508001AE0C2F2000014DD41F2FF32C4F20002914254
S31508001AF020DC40F60042C4F2000291422AD041F2AC
S31508001B000002C4F20002914234D12C30006800472A
S31508001B10B1F1804F22D040F20042C4F20002914255
S31508001B2020D040F60002C4F20002914222D11C30B5
S31508001B300068004741F20042C4F20002914215D003
S31508001B4042F60042C4F20102914218BF70470430BF
S31508001B500068004724300068004700BF0C30006862
S31508001B60004700BF14300068004700BF34300068E3
S31508001B70004700BF704700007047000070B582B08C
S31508001B80044690F8420020280AD113460A4600293E
S31508001B904FF0010018BF002B06D102B070BD00BF80
S31508001BA0022002B070BD00BF2063002522206563B5
S31508001BB0A262A385656484F842002168E06B42F658
S31508001BC0893C42F6E94E42F60D26C0F6000CC0F6F0
S31508001BD0000EC0F600060431C0E90ACEC0E90C655D
S31508001BE0FEF74CFF01952068016801914068019055
S31508001BF00198206930B300BF206850E8030F2168B8
S31508001C0040F4807041E80302E2B1206850E8030F0F
S31508001C10216840F4807041E803029AB1206850E8D0
S31508001C20030F216840F4807041E8030252B120682E
S31508001C3050E8030F216840F4807041E80302002A47
S31508001C40DAD100BF206850E8050F216840F001008E
S31508001C5041E80502BAB3206850E8050F216840F04C
S31508001C60010041E8050272B3206850E8050F2168B3
S31508001C7040F0010041E805022AB3206850E8050F44
S31508001C80216840F0010041E80502002ADAD11AE08D
S31508001C90206850E8050F216840F0400041E8050239
S31508001CA0DAB1206850E8050F216840F0400041E8A5
S31508001CB0050292B1206850E8050F216840F04000FF
S31508001CC041E805024AB1206850E8050F216840F04E
S31508001CD0400041E80502002ADAD1206B01282FD1FD
S31508001CE000200090206801680091406800900098E4
S31508001CF0206850E8030F216840F0100041E803020D
S31508001D00DAB1206850E8030F216840F0100041E876
S31508001D10030292B1206850E8030F216840F01000D2
S31508001D2041E803024AB1206850E8030F216840F0F1
S31508001D30100041E80302002ADAD1002002B070BD83
S31508001D40012002B070BD000070B50446006844F674
S31508001D50FF32C4F20002904218DD44F60042C4F293
S31508001D600002904224D045F20002C4F200029042DA
S31508001D7024D043F60002C4F20102904218BF70BD97
S31508001D8040F20812C2F2000222E000BF44F200420A
S31508001D90C4F20002904217D044F60002C4F20002D0
S31508001DA0904229D140F22832C2F2000210E000BF68
S31508001DB040F23842C2F200020AE000BF40F248523E
S31508001DC0C2F2000204E000BF40F21822C2F200028A
S31508001DD002F5867002F18405036802F5827602F53B
S31508001DE08472284611809847328820462946BDE8DD
S31508001DF07040FFF7C3BE00BF70BD0000704700000B
S31508001E00B0B582B0044600680168C368426901F04B
S31508001E102F05202D03F0200506D12DB1204602B04E
S31508001E20BDE8B04000F06CBF5FEA017C1EBF02F05F
S31508001E30010E03F4907212EB0E0243D1226BCD060B
S31508001E4018D5012A16D113F0100213D000210191DA
S31508001E5001680191416801910199406940063BD4A6
S31508001E60A08DE18DE28D002A18BF884240F0F281EC
S31508001E7002B0B0BD0A0640F1E78013F0800200F018
S31508001E80E38094F841102129F2D1A168B1F5805F69
S31508001E9003D12169002900F06382216A4A1C226263
S31508001EA009784160E18C01390A04E184E0D1C1680E
S31508001EB021F08001C160C16841F04001C16002B0F3
S31508001EC0B0BD00BFCA0718BF13F4807240F0D080B7
S31508001ED04A0700F1D380D8E0E06B016849688AB206
S31508001EE0002AC5D0A38D9A42C2D2E18580692028EE
S31508001EF000F09E80206850E8030F216820F4807067
S31508001F0041E80302DAB1206850E8030F216820F49B
S31508001F10807041E8030292B1206850E8030F2168F7
S31508001F2020F4807041E803024AB1206850E8030FA4
S31508001F30216820F4807041E80302002ADAD120687B
S31508001F4050E8050F216820F0010041E80502C2B3F8
S31508001F50206850E8050F216820F0010041E80502D5
S31508001F607AB3206850E8050F216820F0010041E89F
S31508001F70050232B3206850E8050F216820F00100F9
S31508001F8041E80502002ADAD11BE000BF206850E8C4
S31508001F90050F216820F0400041E80502DAB1206803
S31508001FA050E8050F216820F0400041E8050292B18B
S31508001FB0206850E8050F216820F0400041E8050236
S31508001FC04AB1206850E8050F216820F0400041E832
S31508001FD00502002ADAD1202084F842000020206376
S31508001FE0206850E8030F216820F0100041E803023A
S31508001FF0DAB1206850E8030F216820F0100041E8A4
S31508002000030292B1206850E8030F216820F01000FF
S3150800201041E803024AB1206850E8030F216820F01E
S31508002020100041E80302002ADAD1E06BFEF7D2FA83
S3150800203002206063A08DE18D401A81B2204602B06D
S31508002040BDE8B040FFF780BE49067FF511AF13F033
S3150800205040013FF40DAFC16821F04001C160202165
S31508002060204684F8411002B0BDE8B04000F0A4BB99
S31508002070626C42F0010262644A0706D5BEF1000F9F
S3150800208003D0626C42F0020262648A0706D5BEF18A
S31508002090000F03D0626C42F004026264BCF1000FC8
S315080020A006D55EEA050203D0626C42F00802626455
S315080020B0626C002A3FF4DCAE890604D51DB12046C1
S315080020C000F01EFE20684069616C00F0400001F0D7
S315080020D00801401800F0B680206850E8030F216810
S315080020E020F4907041E80302BAB3206850E8030F61
S315080020F0216820F4907041E8030272B3206850E822
S31508002100030F216820F4907041E803022AB320687F
S3150800211050E8030F216820F4907041E80302002A72
S31508002120DAD11AE0206850E8050F216820F001008E
S3150800213041E80502DAB1206850E8050F216820F069
S31508002140010041E8050292B1206850E8050F2168B0
S3150800215020F0010041E805024AB1206850E8050F61
S31508002160216820F0010041E80502002ADAD1206B37
S31508002170012824D1206850E8030F216820F01000B8
S3150800218041E80302DAB1206850E8030F216820F01D
S31508002190100041E8030292B1206850E8030F216855
S315080021A020F0100041E803024AB1206850E8030F06
S315080021B0216820F0100041E80302002ADAD1202025
S315080021C084F842000020206320684069400640F1F8
S315080021D0C180206850E8050F216820F0400041E8DA
S315080021E00502DAB1206850E8050F216820F04000A2
S315080021F041E8050292B1206850E8050F216820F0F1
S31508002200400041E805024AB1206850E8050F2168F8
S3150800221020F0400041E80502002ADAD1E06B0028E8
S3150800222000F0988042F60121C0F600014163FEF7EE
S31508002230F5F900283FF41CAEE06B416B02B0BDE82F
S31508002240B04008472046FFF7D9FD0020606402B079
S31508002250B0BD00BF401A00BF216851E8031F2268BD
S3150800226021F4907142E80313BBB3216851E8031FB8
S31508002270226821F4907142E8031373B3216851E888
S31508002280031F226821F4907142E803132BB32168D7
S3150800229051E8031F226821F4907142E80313002BCA
S315080022A0DAD11AE0216851E8051F226821F00101F8
S315080022B042E80513DBB1216851E8051F226821F0C1
S315080022C0010142E8051393B1216851E8051F226808
S315080022D021F0010142E805134BB1216851E8051FB9
S315080022E0226821F0010142E80513002BDAD12021EA
S315080022F084F8421000212163216851E8031F2268EF
S3150800230021F0100142E80313DBB1216851E8031FED
S31508002310226821F0100142E8031393B1216851E8BD
S31508002320031F226821F0100142E803134BB121680C
S3150800233051E8031F226821F0100142E80313002B1D
S31508002340DAD1022281B22046626302B0BDE8B0400B
S31508002350FFF7FABC204602B0BDE8B040FFF74EBD15
S31508002360216A31F8022B6FF35F224260216299E5F8
S31508002370002804BF0120704710B5044690F84100B4
S3150800238028B9002084F84000204600F063F824208D
S3150800239084F841002068D4E90212C36823F4005384
S315080023A0C360036923F440531A430261D4E9042342
S315080023B01143C268194341F20C639A431143C16041
S315080023C04169A26921F44071114343F60002C4F23F
S315080023D001029042416103D0FEF766FE02E000BFAB
S315080023E0FEF776FED4E90023192148439900B0FB8D
S315080023F0F1F048F21F5CC5F2EB1CA0FB0C314FF65E
S315080024009C734909C0F6FF7301FB0300322303EBF3
S315080024100010A0FB0C03F02000EA531000EB01109B
S31508002420C3F34311084490601069202120F49040BA
S315080024301061506920F02A005061D06840F40050BD
S31508002440D0600020606484F8411084F8421060630C
S3150800245010BD00002DE9F04186B00446006844F638
S31508002460FF71C4F2000188424FF00001CDE9041162
S31508002470CDE902115ADC44F20041C4F20001884257
S3150800248000F09E8044F60001C4F20001884240F044
S31508002490418141F21800C4F20200416840F6004545
S315080024A041F4802141604168C4F2010501F48021AC
S315080024B001910199016802AE41F0080101600068C6
S315080024C0314600F00800019001984FF480600290B0
S315080024D002200390032005902846FEF71FFB4FF4C1
S315080024E000600290002728463146CDE90377FEF7BB
S315080024F015FB40F2EC653020C2F20005C4F202007A
S3150800250080214FF48052C5E900072846C5E90271C3
S31508002510C5E90477C5E90672FEF760FA002818BF10
S31508002520FEF752F8E5636C622724EBE043F60001F8
S31508002530C4F20101884200F0918045F20001C4F21C
S315080025400001884240F0E68041F21800C4F2020019
S31508002550416840F6004541F4801141604168C4F283
S31508002560010501F4801101910199016802AC41F05D
S3150800257010010160016801F01001019101990168DB
S3150800258041F0200101600068214600F0200001901A
S3150800259001984FF480500290022003900320059082
S315080025A005F58060FEF7BAFA042002900020CDE90E
S315080025B0030005F500602146FEF7B0FA3524A1E0D0
S315080025C041F21800C4F20200416802AE41F400313B
S315080025D04160416801F4003101910199016841F0B7
S315080025E0040101600068314600F00400019001987A
S315080025F004200290022003900320059040F6004034
S31508002600C4F20100A0F580652846FEF787FA08207F
S315080026100290002728463146CDE90377FEF77EFA71
S315080026203020C4F2020040F2A8653C30C2F2000530
S3150800263080214FF48052C5E900072846C5E9027192
S31508002640C5E90477C5E90672FEF7C8F9002818BF78
S31508002650FDF7BAFFE5636C62262453E041F21800E1
S31508002660C4F20200016840F6004541F48041016069
S315080026700168C4F2010501F48041019101990168DC
S3150800268002AE41F0080101600068314600F008001A
S3150800269001900198402002900220039003200590A3
S315080026A02846FEF73BFA4FF08008002728463146B1
S315080026B0CDF80880CDE90377FEF730FA0420C4F296
S315080026C00100016840F2646541F0E06141F00401EF
S315080026D001603020C4F202001430C2F20005102155
S315080026E04FF4805285E883012846C5E90477C5E991
S315080026F00672FEF773F9002818BFFDF765FFA56394
S315080027006C622524204600210022FEF78FFB204616
S31508002710FEF77AFB06B0BDE8F081000090F842307B
S31508002720202B07D100294FF0010318BF002A05D135
S315080027301846704702231846704700BF00230363F4
S31508002740816222218285C285436480F8421001692C
S31508002750006819B1C16841F48071C160416941F0EE
S3150800276001014161C16841F02001C1601846704706
S31508002770006844F60001C4F20001884218BF704799
S3150800278010B540F2A80040F22831C2F20000C2F2A9
S315080027900001806D01F18404214600F045FB40F6F6
S315080027A00800C2F2000021461322BDE81040FFF7D8
S315080027B0B5BF00007047000070470000FEE7000044
S315080027C080B582B041F21400C4F20200016800220A
S315080027D041F0010101600068002100F0010001904C
S315080027E001980D20FEF722FB0D20FEF70DFB0E20AB
S315080027F000210022FEF71AFB0E20FEF705FB10202B
S3150800280000210022FEF712FB102002B0BDE880402E
S31508002810FEF7FABA81B041F21800C4F20200016864
S3150800282041F020010160016801F020010091009942
S31508002830016841F004010160016801F0040100919A
S315080028400099016841F008010160016801F008017A
S3150800285000910099016841F010010160006800F0DC
S3150800286010000090009801B07047000080B586B04F
S3150800287040F230700021C2F2000040F2E73C0591B8
S31508002880CDE90311CDE900114FF080424723C0E995
S31508002890021C01618021C0E900238161FEF7ECFE7C
S315080028A0002818BFFDF790FE4FF48050029040F2C2
S315080028B03070C2F2000002A9FEF77CFF002818BF9C
S315080028C0FDF782FE40F23070C2F200006946FEF75C
S315080028D08FFE002818BFFDF777FE06B080BD000002
S315080028E080B540F6500045F20001C2F20000C4F27D
S315080028F0000100234FF00C0C4FF4E13280E80E0083
S31508002900C0E90333C0E905C3C361FFF731FD0028F9
S3150800291008BF80BDBDE88040FDF756BE80B540F2D1
S31508002920787043F60001C2F20000C4F201010023E8
S315080029304FF00C0C4FF4165280E80E00C0E9033332
S31508002940C0E905C3C361FFF713FD002808BF80BDB2
S31508002950BDE88040FDF738BE80B540F2C07044F24D
S315080029600041C2F20000C4F2000100234FF00C0C33
S315080029704FF4165280E80E00C0E90333C0E905C3D8
S31508002980C361FFF7F5FC002808BF80BDBDE880409D
S31508002990FDF71ABE80B540F6080044F60001C2F2FB
S315080029A00000C4F2000100234FF00C0C4FF416523D
S315080029B080E80E00C0E90333C0E905C3C361FFF729
S315080029C0D7FC002808BF80BDBDE88040FDF7FCBDE8
S315080029D0FEE70000FEE700007047000070470000B1
S315080029E0FEF7AAB97047000040F23070C2F2000044
S315080029F0FEF7B2BF40F65000C2F20000FFF700BA79
S31508002A00406A0021C185C184FFF7F8B9406A0168A8
S31508002A104A6990F84130212B2DD112F080022AD034
S31508002A200021C184016851E8031F026821F0C00132
S31508002A3042E80313DBB1016851E8031F026821F07D
S31508002A40C00142E8031393B1016851E8031F026805
S31508002A5021F0C00142E803134BB1016851E8031F96
S31508002A60026821F0C00142E80313002BDAD12021C5
S31508002A7080F841100168496990F84220222A40F0FE
S31508002A807D8011F0400179D00021C185016851E8A7
S31508002A90031F026821F4907142E80313BBB301686F
S31508002AA051E8031F026821F4907142E8031373B3D7
S31508002AB0016851E8031F026821F4907142E8031384
S31508002AC02BB3016851E8031F026821F4907142E8AC
S31508002AD00313002BDAD11AE0016851E8051F0268D2
S31508002AE021F0010142E80513DBB1016851E8051F31
S31508002AF0026821F0010142E8051393B1016851E823
S31508002B00051F026821F0010142E805134BB101686F
S31508002B1051E8051F026821F0010142E80513002B60
S31508002B20DAD1016B012924D1016851E8031F026833
S31508002B3021F0100142E80313DBB1016851E8031FD5
S31508002B40026821F0100142E8031393B1016851E8C5
S31508002B50031F026821F0100142E803134BB1016814
S31508002B6051E8031F026821F0100142E80313002B05
S31508002B70DAD1202180F8421000210163416C41F02E
S31508002B8010014164FFF73AB90168406A0968890685
S31508002B9000F19F800021C185016851E8031F026882
S31508002BA021F4807142E80313E3B1016851E8031F79
S31508002BB0026821F4807142E803139BB1016851E869
S31508002BC0031F026821F4807142E8031353B10168B8
S31508002BD051E8031F026821F4807142E80313002BB1
S31508002BE0DAD100BF016851E8051F026821F001012A
S31508002BF042E80513BBB3016851E8051F026821F0D6
S31508002C00010142E8051373B3016851E8051F02681C
S31508002C1021F0010142E805132BB3016851E8051FAD
S31508002C20026821F0010142E80513002BDAD11AE007
S31508002C30016851E8051F026821F0400142E80513C2
S31508002C40DBB1016851E8051F026821F0400142E83E
S31508002C50051393B1016851E8051F026821F0400188
S31508002C6042E805134BB1016851E8051F026821F0D7
S31508002C70400142E80513002BDAD1202180F84210E2
S31508002C80016B012925D100BF016851E8031F0268BD
S31508002C9021F0100142E80313DBB1016851E8031F74
S31508002CA0026821F0100142E8031393B1016851E864
S31508002CB0031F026821F0100142E803134BB10168B3
S31508002CC051E8031F026821F0100142E80313002BA4
S31508002CD0DAD100214163016B012918BFFFF748BD0E
S31508002CE0818DFFF731B80000406A01214163016B0D
S31508002CF0012918BFFFF75EBD818D4908FFF724B883
S31508002D0081B090F84210222921D183680246B3F592
S31508002D10805F09D152F8281F52F8183C002B63D05F
S31508002D2003685B680AE000BF52F8281F13B90369F5
S31508002D30002BF5D003685B6803F07F030B701168FE
S31508002D4001311160C18D01390A04C18502D001B073
S31508002D50704700BF0168CA6822F02002CA60CA68C4
S31508002D6022F48072CA604A6922F001024A6120216F
S31508002D7080F8421000214163026B012A3CD10163AD
S31508002D80016851E8031F026821F0100142E80313A5
S31508002D90DBB1016851E8031F026821F0100142E81F
S31508002DA0031393B1016851E8031F026821F010016B
S31508002DB042E803134BB1016851E8031F026821F08A
S31508002DC0100142E80313002BDAD101680A68D2061B
S31508002DD006D5002200920A68009249680091009977
S31508002DE0818D01B0FEF7B0BF026852686FF35F22AB
S31508002DF021F8022B8162A5E701B0FFF7B9BC0000F4
S31508002E0040F27870C2F20000FEF7FABF40F2C070D6
S31508002E10C2F20000FEF7F4BF40F60800C2F2000056
S31508002E20FEF7EEBFFEE7000070B50668451D0446CE
S31508002E3006F1840128461322FDF786FAB6F88400BF
S31508002E40A4F82B00D6F88E10D6F88700D6F88B2073
S31508002E50616340F20411C2F20001C4F83120C4F8DB
S31508002E602D000A78D6F8933001202071501C08707E
S31508002E7004F1180029461322A363BDE87040FDF744
S31508002E8063BA03C844F64E42C0F24302000A82EA15
S31508002E90112240EA016042F62B31C4F243714840E0
S31508002EA01043B0FA80F04009704710B500F0AFF84B
S31508002EB0D0F808E0BEF1000F25D0714651F828CFAA
S31508002EC044F64E424B68C0F2430282EA13244FEAA4
S31508002ED01C2242EA036242F62B33C4F243735A4079
S31508002EE022430CD1DEF82420013ACEF8242008D15A
S31508002EF0DEF8202082600020CEF8200001E00022C3
S31508002F008260084610BD00F041F8000080B5804791
S31508002F1004A000F086F800F053F80CA000F081F841
S31508002F2000F049F87465726D696E6174655F686171
S31508002F306E646C657220756E657870656374656419
S31508002F406C792072657475726E6564007465726D4D
S31508002F50696E6174655F68616E646C657220756E12
S31508002F6065787065637465646C79207468726577D2
S31508002F7020616E20657863657074696F6E00000065
S31508002F8040F20C00C2F200000068704710B500F06D
S31508002F9043F808B104681CB9FFF7F2FFFFF7B6FF5C
S31508002FA004F12800FFF76DFF0028F5D06069FFF7E8
S31508002FB0ADFF00F000F880B500F002F8FFF7E6FF75
S31508002FC070B50546FFF75DFF064600F020F8044693
S31508002FD02846283800BF7EB1C169002948BF494242
S31508002FE0226801319042C1611CBF8261206061681C
S31508002FF001396160C06C70BD2168002902BF20607C
S3150800300005F1580070BDFFF7C1FFFFF7D4FF40F286
S315080030105860C2F20000704740F25860C2F20000E1
S31508003020704780B5FDF7FFF994B0FDF793FE06AC3F
S3150800303004F110002821FDF7CCF90120069000259F
S315080030400B904FF4E0104FF480310226CDE91005BD
S315080030502046089109950795CDE90E61FEF74CF8CB
S3150800306020B1EFF3108072B6FEE700BF0F20CDE95E
S3150800307001064FF48060CDE9040501A802210395F5
S31508003080FDF710FF20B1EFF3108072B6FEE700BF20
S315080030907020C4F2422001210160FFF7BBFBFFF755
S315080030A08FFBFFF71DFCFFF739FCFFF755FCFFF711
S315080030B071FCFFF7DBFB00BFFEE700000000000025
S315080030C000000102030406070809000000000102C7
S315080030D00304000004050607080900000000000DA7
S315080030E00102030405060708090A0B0C0D0E0F104A
S315080030F0103100080000002010000000B40100088C
S315080031002031000810000020900E0000D4010008AD
S3150800311001000000100000000024F4002704000845
S70508000151A0
