:020000040800F2
:100000001036002045020008853300082130000822
:1000100081330008370A0008E135000800000000BD
:100020000000000000000000000000008B3300080A
:100030006D0A000800000000893300088D330008B5
:100040005F0200085F0200085F0200085F0200080C
:100050005F0200085F0200085F0200085F020008FC
:100060005F0200085F0200085F0200085F020008EC
:100070005F0200083D0A00084D0A00085F02000800
:100080005D0A00085F0200085F0200085F020008C6
:100090005F0200085F0200085F0200085F020008BC
:1000A0005F0200085F0200085F0200085F020008AC
:1000B000993300085F0200085F0200085F02000831
:1000C0005F0200085F0200085F0200085F0200088C
:1000D0005F020008B1350008C1350008D1350008BD
:1000E0006F0A00085F0200085F02000800000000BD
:1000F0000000000000000000000000000000000000
:1001000000000000000000005F0200085F0200081D
:10011000CD340008DD3400085F0200085F020008EB
:100120005F0200085F0200085F0200085F0200082B
:100130005F02000800000000000000005F020008ED
:100140005F0200085F0200085F0200085F0200080B
:1001500000F002F800F067F80AA090E8000C824472
:100160008344AAF10107DA4501D100F05CF8AFF24F
:10017000090EBAE80F0013F0010F18BFFB1A43F085
:100180000103184798470000B847000010F8013BEA
:100190000A4413F0030408BF10F8014B1D1108BFF7
:1001A00010F8015B641E05D010F8016B641E01F8A5
:1001B000016BF9D1002D15D010F8014B03F00C03A1
:1001C0000C2BA1EB04040ABF10F8013BA4EB831431
:1001D000A4EB032405F1010314F8016B5B1E01F885
:1001E000016BF9D5914238BF10F8013BD1D370476C
:1001F0000023002400250026103A28BF78C1FBD830
:10020000520728BF30C148BF0B607047732900F008
:100210008E82002070471FB59DE8030000F0AEFA03
:100220001FBD10B510BD00F0ECFA1146FFF7F3FF4B
:1002300004F03EFB00F024FB03B4FFF7F2FF03BC25
:1002400000F062FB0948804709480047FEE7FEE7E7
:10025000FEE7FEE7FEE7FEE7FEE7FEE7FEE7FEE776
:1002600004480549054A064B7047000095330008CD
:10027000510100081018002010360020102700201F
:100280001027002053EA020C00F069802DE9F04BA2
:100290004FF00006002B1FBFB3FA83F503FA05F4F5
:1002A00024FA05F65E4012BF1643B2FA82F502FA4E
:1002B00005F4C5F120051EBF22FA05FC44EA0C0432
:1002C000203556EA044C4FEA144418BF641C4FF022
:1002D00000084FF00009904271EB030C39D300295C
:1002E00019BFB1FA81F701FA07F6B0FA80F700FA00
:1002F00007F6C7F120071EBF20FA07FC46EA0C06E6
:100300002037B6FBF4FCA7EB0507103F07F01F0BE7
:10031000CBF120060CFA0BFB2CFA06F644BFB346D1
:100320000026202FA4BF5E464FF0000B5BEA060CB0
:1003300008BF4FF0010B19EB0B09ABFB027C48EB3C
:100340000608C01B06FB02CC0BFB03CC71EB0C01B7
:10035000C1E70B46024641464846BDE8F08B13B55F
:100360004FF000004FF00001AFF30080BDE81C40EB
:10037000704700000FB41CB5074B06AA7B446946C2
:100380000090059800F0A9F90020694600F0B8F93E
:100390001CBC5DF814FB0000810300002DE9F04156
:1003A0000E460446002020622046E168884730B3AC
:1003B000252805D0D4E901219047206A401CF2E7A6
:1003C000E168204600278847050018D0A5F14100C4
:1003D000192802D820354FF40067324629462046B6
:1003E0002760FFF713FF40B1012804D0F61D26F067
:1003F00007060836D8E7361DD6E72846DAE7206A2A
:10040000BDE8F08170B50C460546012A05D0287874
:10041000800600D5EA69002302E0012305E05B1CA9
:10042000934202D2E05C0028F9D1A869E618C01A0C
:10043000A861286A184428622846AFF3008004E0C7
:10044000D5E9012114F8010B9047B442F8D32846AE
:10045000AFF3008070BD10B5431C02E010F8011B23
:1004600071B18107FAD14FF0013202C88C1A8C4366
:1004700014EAC211F9D0C01A0A0603D0C01E10BD7A
:10048000C01A10BD0A0401D0801E10BD0902FCD0A4
:10049000401E10BD032A40F2308010F0030C00F023
:1004A000158011F8013BBCF1020F624498BF11F8AE
:1004B00001CB00F8013B38BF11F8013BA2F1040267
:1004C00098BF00F801CB38BF00F8013B11F00303DF
:1004D00000F02580083AC0F0088051F8043B083A43
:1004E00051F804CBA0E80810F5E7121D5CBF51F8E5
:1004F000043B40F8043BAFF30080D20724BF11F85F
:10050000013B11F801CB48BF11F8012B24BF00F8C3
:10051000013B00F801CB48BF00F8012B704710B534
:10052000203AC0F00B80B1E81850203AA0E81850EB
:10053000B1E81850A0E81850BFF4F5AF5FEA027CAC
:1005400024BFB1E81850A0E8185044BF18C918C01B
:10055000BDE810405FEA827C24BF51F8043B40F8BC
:10056000043B08BF7047D20728BF31F8023B48BFA1
:1005700011F8012B28BF20F8023B48BF00F8012BDF
:1005800070474FF000020429C0F0128010F0030CF5
:1005900000F01B80CCF1040CBCF1020F18BF00F876
:1005A000012BA8BF20F8022BA1EB0C0100F00DB825
:1005B0005FEAC17C24BF00F8012B00F8012B48BF83
:1005C00000F8012B70474FF0000200B51346944627
:1005D0009646203922BFA0E80C50A0E80C50B1F19B
:1005E0002001BFF4F7AF090728BFA0E80C5048BFAF
:1005F0000CC05DF804EB890028BF40F8042B08BF4D
:10060000704748BF20F8022B11F0804F18BF00F848
:10061000012B7047704770477047000000487047D3
:10062000E417002070B5064600F08CF8056806F166
:100630000B0020F00704B4429CBF002070BD2B4685
:100640006A68BAB11068A04210D304F10801884268
:100650003CBF5068586007D3516810194160116859
:10066000091B016058601460101D70BD134652686C
:10067000002AE7D12146284600F06CF80028DED198
:1006800070BD70B50446051F00F05CF80068002CD2
:1006900014BF446870BD002C18BFAC423CBF20465C
:1006A0006468F8D301680A18AA4218BF456003D1EC
:1006B0002A6805461144016028684119A1421CBFFF
:1006C0006C6070BD6168696021680844286070BD15
:1006D00001694A1C02610878704700B58FB0CDE906
:1006E00001310021059105497944CDE903101146F6
:1006F0006846FFF753FE0FB000BD0000E5FFFFFFA7
:100700000A6802F8010B0A60704710B5436913B11B
:10071000AFF3008001E0FFF775FE012010BD1278F5
:1007200000F124010A7000224A700122EDE71168ED
:100730004FF0FF32E9E700F057B80000004870477B
:10074000B017002000487047B81700207047704766
:100750007047704738B504460A4600206946AFF333
:100760000080002808BF38BD02460099204600F0EE
:100770006DF8012038BD012000F096B8F8B5AFF350
:100780000080054600200C46102000BF0646A81930
:10079000A0420DD9324669460020AFF30080070021
:1007A00008BF00F081F80098A04218BF0546C419A0
:1007B000FFF7C8FF05600746F01D20F00700461947
:1007C000284600F00AF8B44208BFF8BDA21B314623
:1007D0003868BDE8F84000F039B800210160C0E990
:1007E000011070471020704710B500F068F80169DB
:1007F00019B100220261884701E08068804700F05B
:1008000048F87546FFF79AFFAE460500694653461D
:1008100020F00700854618B020B5FFF721FDBDE8A0
:1008200020404FF000064FF000074FF000084FF057
:10083000000B21F00701AC46ACE8C009ACE8C009E8
:10084000ACE8C009ACE8C0098D4670470346406873
:100850008C46002818BF88423CBF03464068F8D346
:1008600018681844884207D00CF1030020F00700F4
:10087000001D411A521A0146081D0A60FFF701BF08
:1008800010B50446AFF300802046BDE81040FFF7E6
:10089000D3BC10B5002000F048F8FFF7C2FCBDE85B
:1008A0001040012000F030B810B500F045F8BDE868
:1008B000104000F035B8000010B5FFF7EAFF70B542
:1008C00000F02AF804680546A4B92020FFF7AAFE24
:1008D000040011D0094900202C60C4E90001084936
:1008E000A1602073206160610649A06109B100F038
:1008F0004BF8E061204670BDFFF7CBFF0000000021
:10090000B90800080000000001491820ABBEFEE74E
:10091000260002007047000000487047EC170020D6
:10092000002801D0FFF7F0BF704710B500F064F861
:10093000BDE81040FFF7F4BF10B5012805D0002135
:1009400003A000F03FF8012010BD09A1F8E7000066
:1009500053494752544D454D3A204F7574206F66A8
:100960002068656170206D656D6F72790000000010
:100970003A2048656170206D656D6F727920636FF4
:10098000727275707465640010B58820FFF74AFEB6
:10099000002801D00021017010BD802902D808B1C3
:1009A000017809B100207047012100F8081B704749
:1009B00018B100F10802914201D0002070470021D7
:1009C0000170704770B505460C460A2000E06D1CAA
:1009D00000F02AF835B128780028F8D102E0641C2C
:1009E00000F022F814B120780028F8D1BDE870405A
:1009F0000A2000F019B8000010B5002102A0FFF78E
:100A0000E1FF012010BD0000534947414252543AD2
:100A10002041626E6F726D616C207465726D696EDB
:100A20006174696F6E00000008B569468DF80000BA
:100A30000320ABBE08BD00BFFEE7000010B50248B2
:100A400000F01EF910BD0000D00D002010B50248C6
:100A500000F016F910BD0000480D002010B5024846
:100A600000F00EF910BD00008C0D0020704710B58D
:100A70004FF4004000F098FB10BD72B600BFFEE7D7
:100A80000146002291F82100022808D00420886342
:100A900000BF002081F8200000BF012070470868D7
:100AA000006820F00E000B6818600868006820F0ED
:100AB00001000B68186091F8403001209840CB6B22
:100AC0005860012081F8210000BF002081F820003B
:100AD00000BF1046E2E7000070B50446002594F818
:100AE0002100022803D00420A0630125C1E0206872
:100AF000006820F00E00216808602068006820F07F
:100B00000100216808605C492068884252D95A492E
:100B100078392068884201D1012047E0564964397C
:100B20002068884201D1102040E0534950392068A4
:100B3000884201D1801539E04F493C39206888420C
:100B400001D1801432E04C4928392068884202D112
:100B50004FF480302AE0484914392068884202D195
:100B60004FF4801022E044492068884201D14004BB
:100B70001CE042492068884201D1012016E03F492B
:100B800014312068884201D110200FE03B49283100
:100B90002068884201D1801508E038493C3120683E
:100BA000884201D1801401E04FF480303349091F9D
:100BB000086051E0304978392068884201D101202D
:100BC00047E02D4964392068884201D1102040E077
:100BD000294950392068884201D1801539E02649D9
:100BE0003C392068884201D1801432E022492839FA
:100BF0002068884202D14FF480302AE01E4914391F
:100C00002068884202D14FF4801022E01A492068FF
:100C1000884201D140041CE018492068884201D173
:100C2000012016E0154914312068884201D11020B6
:100C30000FE0124928312068884201D1801508E070
:100C40000E493C312068884201D1801401E04FF404
:100C50008030094980394860012084F8210000BFB4
:100C6000002084F8200000BF606B10B12046616B4B
:100C70008847284670BD00008000024008040240FA
:100C800070B50446E06B05682068066894F840106B
:100C9000042088402840002875D006F00400002871
:100CA000FAD02068006800F0200028B920680068A9
:100CB00020F0040021680860D5492068884254D992
:100CC000D34978392068884201D1042049E0D049CD
:100CD00064392068884201D1402042E0CC49503933
:100CE0002068884201D100153BE0C9493C392068A1
:100CF000884202D14FF4804033E0C549283920684A
:100D0000884202D14FF480202BE0C1491439206879
:100D1000884202D14FF4800023E0BD492068884218
:100D200001D1C0041DE0BB492068884201D10420E4
:100D300017E0B84914312068884201D1402010E002
:100D4000B44928312068884201D1001509E0B14931
:100D50003C312068884202D14FF4804001E04FF4DA
:100D60008020AC49091F086054E0A94978392068FF
:100D7000884201D104204AE0A549643920688842AC
:100D800002D1402043E04CE0A1495039206888421C
:100D900001D100153BE09E493C392068884202D1D0
:100DA0004FF4804033E09A4928392068884202D1C4
:100DB0004FF480202BE0964914392068884202D1F4
:100DC0004FF4800023E092492068884201D1C0049A
:100DD0001DE090492068884201D1042017E08D4928
:100DE00014312068884201D1402010E0894928311F
:100DF0002068884201D1001509E086493C3120680D
:100E0000884202D14FF4804001E04FF480208049B5
:100E100080394860E06A002802D02046E16A8847AD
:100E2000F4E094F84010022088402840002871D057
:100E300006F002000028FAD02068006800F02000C8
:100E400040B92068006820F00A002168086001208D
:100E500084F821006E492068884254D96C49783959
:100E60002068884201D1022049E06949643920683C
:100E7000884201D1202042E06549503920688842EB
:100E800001D140153BE062493C392068884202D1DB
:100E90004FF4005033E05E4928392068884202D17F
:100EA0004FF400302BE05A4914392068884202D1AF
:100EB0004FF4001023E056492068884201D1800495
:100EC0001DE054492068884201D1022017E05149B1
:100ED00014312068884201D1202010E04D4928318A
:100EE0002068884201D1401509E04A493C31206818
:100EF000884202D14FF4005001E04FF400304549E0
:100F0000091F086054E0424978392068884202D1BC
:100F100002204AE057E03E4964392068884201D106
:100F2000202042E03A4950392068884201D14015DA
:100F30003BE037493C392068884202D14FF40050E9
:100F400033E0334928392068884202D14FF4003019
:100F50002BE02F4914392068884202D14FF4001049
:100F600023E02B492068884201D180041DE02949F3
:100F70002068884201D1022017E0264914312068F8
:100F8000884201D1202010E022492831206888427F
:100F900001D1401509E01F493C312068884202D147
:100FA0004FF4005001E04FF4003019498039486097
:100FB00000BF002084F8200000BFA06A30B32046A4
:100FC000A16A884722E094F8401008208840284011
:100FD000E0B106F00800C8B12068006820F00E00FB
:100FE0002168086094F8401001208840E16B486057
:100FF0000120A06384F8210000BF002084F82000B5
:1010000000BF206B10B12046216B884770BD0000E7
:1010100080000240080402400146002209B9012074
:1010200070471E4B086898420BD21D4B0868C01AC7
:101030001423B0FBF3F08000086419480838C86333
:101040000AE0164B0868C01A1423B0FBF3F08000C6
:10105000086412480838C863022081F82100086833
:10106000026843F6F0708243D1E901031843CB686C
:1010700018430B6918434B6918438B691843CB69B4
:10108000184302430868026000208863012081F849
:101090002100002081F8200000BFC1E708040240C1
:1010A000080002402DE9F04104460D4616461F4651
:1010B0004FF0000800BF94F82000012802D1022060
:1010C000BDE8F081012084F8200000BF94F82100E1
:1010D00001282CD1022084F821000020A063206880
:1010E000006820F00100216808603B46324629462E
:1010F000204602F0CFFAE06A30B12068006840F084
:101100000E00216808600BE02068006820F00400F1
:10111000216808602068006840F00A0021680860C3
:101120002068006840F001002168086006E000BF08
:10113000002084F8200000BF4FF002084046BFE7BF
:1011400070B5044600F0DAF906462546681C10B171
:1011500004480078054400BF00F0D0F9801BA84285
:10116000FAD370BD0800002010B50446B4F5004F56
:1011700015D14FF400410A4800F0B2F978B9094896
:10118000406D90F8990028B901200649496D81F811
:10119000990004E000200349496D81F8990010BDD1
:1011A000000801404817002010B5044604480068B4
:1011B000204020B1024804602046FFF7D5FF10BD53
:1011C000140401402DE9F8470346002294466DE1DE
:1011D0004FF0010808FA02F4D1F8008008EA040090
:1011E000A0427DD1DFF8D8A2D1F80480A8EB0A098B
:1011F000D0453AD014DCB8F1030F50D009DCB8F177
:10120000000F31D0B8F1010F1CD0B8F1020F49D155
:1012100020E0B8F1110F18D0B8F1120F42D11EE042
:10122000B9F5881F25D006DCB9F5803F20D0B9F587
:10123000801F37D11AE0B9F5001F18D0B9F5041F87
:1012400030D117E0D1F80CC02DE0D1F80C8008F1B6
:10125000040C28E0D1F80C8008F1080C23E0D1F848
:101260000C8008F10C0C1EE000BF00BF00BF00BFE7
:1012700000BF00BFD1F80880B8F1000F02D14FF0D5
:10128000040C0BE0D1F80880B8F1010F03D14FF046
:10129000080C1C6102E04FF0080C5C6103E04FF0A9
:1012A000000C00E000BF00BFFF2801D8984601E015
:1012B00003F104084646FF2802D84FEA820803E0FB
:1012C000A2F108084FEA88084746D6F800804FF098
:1012D0000F0909FA07F928EA09080CFA07F900E0EA
:1012E00087E048EA0908C6F80080D1F8048008F0D1
:1012F0008058B8F1805F7CD100BFDFF8C881D8F892
:10130000188048F00108DFF8BC91C9F81880C84679
:10131000D8F8188008F00108CDF8008000BF4FEA27
:10132000B9384FEA920958F829504FEA82784FEAC3
:1013300018794FF00F0808FA09F825EA0805DFF8D0
:101340008881434502D14FF0000816E0DFF87C8128
:10135000434502D14FF001080FE0DFF874814345A7
:1013600002D14FF0020808E0DFF86881434502D15E
:101370004FF0030801E04FF004084FEA82794FEA8A
:10138000197908FA09F848EA0505DFF84C814FEAAF
:10139000920948F82950D1F8048008F48018B8F56B
:1013A000801F0AD1DFF83481D8F8008048EA0008AD
:1013B000DFF82891C9F8008009E0DFF82081D8F82B
:1013C000008028EA0008DFF81491C9F80080D1F8FD
:1013D000048008F40018B8F5001F10D1DFF8FC8075
:1013E00008F10408D8F8008048EA0008DFF8EC901B
:1013F00000E05AE009F10409C9F800800DE0DFF8C7
:10140000DC8008F10408D8F8008028EA0008DFF83A
:10141000CC9009F10409C9F80080D1F8048008F4DF
:101420000038B8F5003F0ED1DFF8B080A8F104080D
:10143000D8F8008048EA0008DFF8A090A9F1040974
:10144000C9F800800DE0DFF89480A8F10408D8F80E
:10145000008028EA0008DFF88490A9F10409C9F89F
:101460000080D1F8048008F48038B8F5803F0ED1B0
:10147000DFF86880A8F10808D8F8008048EA00087A
:10148000DFF85890A9F10809C9F800800DE0DFF8ED
:101490004C80A8F10808D8F8008028EA0008DFF896
:1014A0003C90A9F10809C9F80080521CD1F80080CD
:1014B00028FA02F8B8F1000F7FF48AAEBDE8F88789
:1014C000000011100010024000080140000C014013
:1014D00000100140001401400800014008040140D0
:1014E000024693680B400BB1012000E000207047DA
:1014F0000AB1016101E00B04036170470148006813
:1015000070470000000000200146002200BF91F853
:101510004000012801D102207047012081F84000DD
:1015200000BF242081F841000868C26822F00C0244
:1015300042F008020868C260202081F8410000BF24
:10154000002081F8400000BF00BFE5E703480068C5
:1015500003490978084401490860704700000020E9
:101560000800002010B50848006840F01000064947
:101570000860032000F0A6F8002000F007F800F053
:101580002BF8002010BD00000020024070B504467A
:101590000E4800784FF47A71B1FBF0F00C490968FD
:1015A000B1FBF0F5284600F0B5FC08B1012070BD94
:1015B000102C07D200222146501E00F045F80548A5
:1015C000046001E00120F2E70020F0E708000020BD
:1015D0000C0000200400002008B500BF10488069FE
:1015E00040F001000E4988610846806900F0010062
:1015F000009000BF00BF0846C06940F08050C8613D
:101600000846C06900F08050009000BF00BF054947
:10161000486820F0E06040F00070486000BF08BDFE
:10162000001002400000014001460846002809DB86
:1016300000F01F0301229A4043099B0003F1E023BD
:10164000C3F8002100BF70472DE9F05F80460D46CA
:101650001646002702F0B6FB074639462A463346AF
:1016600001F00700C0F1070ABAF1040F02D94FF0E8
:10167000040A01E0C0F1070AD14600F1040ABAF1F8
:10168000070F02D24FF0000A01E0A0F1030AD4468E
:101690004FF0010A0AFA09FAAAF1010A0AEA020A53
:1016A0000AFA0CFA4FF0010B0BFA0CFBABF1010B31
:1016B0000BEA030B4AEA0B042146404602F0B8FA53
:1016C000BDE8F09F00BF00F00702064B19684FF617
:1016D000FF031940044B0B4343EA0221014B1960FD
:1016E00000BF70470CED00E00000FA0570B504463D
:1016F0000D460CB9012070BD5A48006800F0070083
:10170000A8420ED25748006820F0070028435549E8
:1017100008600846006800F00700A84201D00120D8
:10172000E9E7207800F0020002281DD1207800F0BF
:101730000400042805D14C48406840F4E0604A4960
:101740004860207800F00800082805D14648406825
:1017500040F46050444948604348406820F0F0003D
:10176000A168084340494860207800F0010078B340
:101770006068012806D13C48006800F4003090B948
:101780000120B8E76068022806D13748006800F0F9
:10179000007040B90120AEE73348006800F0020055
:1017A00008B90120A7E73048406820F003006168CD
:1017B00008432D494860FFF7A1FE064609E0FFF700
:1017C0009DFE801B41F28831884202D9032092E7B6
:1017D00007E02548406800F00C006168B0EB810F1D
:1017E000EDD12048006800F00700A8420ED91D483E
:1017F000006820F0070028431A490860084600687E
:1018000000F00700A84201D0012074E7207800F022
:101810000400042807D11448406820F4E060E1681F
:10182000084311494860207800F00800082808D1D2
:101830000D48406820F46050216940EAC1000A491F
:10184000486000F03FF808494968C1F30311074AAE
:10185000515CC8400649086006480068FFF796FEDC
:10186000002048E700200240001002400249000822
:101870000C000020040000200148006870470000B0
:101880000C00002000B5FFF7F7FF04494968C1F3D9
:101890000221034A515CC84000BD00000010024014
:1018A0001249000800B5FFF7E7FF04494968C1F392
:1018B000C221034A515CC84000BD00000010024034
:1018C000124900082DE9FE4F4FF00009CB46CA46E9
:1018D000002400200290019000902F48D0F804903E
:1018E00009F00C0000284ED0042802D008284BD163
:1018F00002E02A4802904AE02948C9F38341445C47
:1019000009F48030C0B32448C06A00F00F002549B4
:1019100011F800B02048C06A00F4803008B31E48B7
:10192000C06AC0F30310401C01901B48C06AC0F39A
:101930000320801C00900198A0FB0B50064617491D
:101940000098A1FB00120023A1FB047C02FB04C24F
:1019500001FB03212A4633463846FEF793FC8246B4
:1019600003E00E486043B0FBFBFA0D48407BA04209
:1019700006D14FEA5A0A03E0FFE70B4804FB00FADE
:10198000CDF808A003E000BF0448029000BF00BFEC
:101990000298BDE8FE8F00000010024000127A009D
:1019A000E4480008F248000800093D00F8B5044684
:1019B0000CB90120F8BD207800F00100002878D093
:1019C000FC48406800F00C0004280CD0F94840683E
:1019D00000F00C00082811D1F648406800F480306F
:1019E000B0F5803F0AD1F348006800F400300028C9
:1019F0005FD0A06800285CD10120DBE700BFA068B1
:101A0000B0F5803F06D1EB48006840F48030E949EA
:101A1000086028E0A06858B9E648006820F48030E3
:101A2000E44908600846006820F4802008601AE055
:101A3000A068B0F5A02F0BD1DE48006840F48020EC
:101A4000DC4908600846006840F4803008600AE01D
:101A5000D848006820F48030D649086008460068FD
:101A600020F48020086000BFA06888B1FFF746FD21
:101A7000054606E0FFF742FD401B642801D903201C
:101A800098E7CC48006800F400300028F2D010E05D
:101A9000FFF734FD054606E0FFF730FD401B6428E4
:101AA00001D9032086E7C348006800F4003000280D
:101AB000F2D1207800F00200022857D1BD484068DA
:101AC00000F00C0050B1BB48406800F00C00082842
:101AD00018D1B848406800F4803098B9B54800681B
:101AE00000F0020020B16069012801D0012061E707
:101AF000B048006820F0F800A16940EAC100AD4993
:101B0000086033E06069E8B10120AB490860FFF785
:101B1000F5FC054606E0FFF7F1FC401B022801D961
:101B2000032047E7A348006800F002000028F2D035
:101B3000A048006820F0F800A16940EAC1009D4972
:101B4000086013E000209C490860FFF7D7FC0546B9
:101B500006E0FFF7D3FC401B022801D9032029E748
:101B60009448006800F002000028F2D1207800F0CC
:101B7000080008282DD1E069B8B101208F4908601C
:101B8000FFF7BCFC054606E0FFF7B8FC401B022847
:101B900001D903200EE78748406A00F002000028C0
:101BA000F2D0012002F0BAF913E000208349086066
:101BB000FFF7A4FC054606E0FFF7A0FC401B022847
:101BC00001D90320F6E67B48406A00F002000028B5
:101BD000F2D1207800F00400042872D10027754863
:101BE000C06900F0805068B900BF7248C06940F019
:101BF00080507049C8610846C06900F0805000906C
:101C000000BF01276E48006800F48070B0B96C48CE
:101C1000006840F480706A490860FFF76FFC054671
:101C200006E0FFF76BFC401B642801D90320C1E6E6
:101C30006348006800F480700028F2D000BF20697B
:101C4000012806D15B48006A40F00100594908624A
:101C500027E0206958B95748006A20F0010055492B
:101C600008620846006A20F00400086219E0206952
:101C700005280BD14F48006A40F004004D49086226
:101C80000846006A40F0010008620AE04948006A1C
:101C900020F00100474908620846006A20F004006D
:101CA000086200BF2069A0B1FFF728FC054609E0E3
:101CB000FFF724FC401B41F28831884202D90320FF
:101CC00078E622E03B48006A00F002000028EFD0EE
:101CD00012E0FFF713FC054608E0FFF70FFC401B7E
:101CE00041F28831884201D9032063E63148006A15
:101CF00000F002000028F0D1012F05D12D48C06965
:101D000020F080502B49C86100BFE06AA0B3294889
:101D1000406800F48030B0F5803F0ED1254840681F
:101D200000F00C00082808D12248C06A00F4803076
:101D3000B0F5803F01D101203CE6E06A02284FD196
:101D40001C48006800F0805040B11A48C06A00F09A
:101D5000F001606B814201D001202BE60020164982
:101D60008866FFF7CBFB054607E0FFF7C7FB401B84
:101D7000642802D903201DE64CE00E48006800F0FC
:101D800000600028F1D10B48C06A20F0F000616BC0
:101D900008430849C8620846C06A20F47060216B95
:101DA00008430449C862012003498866FFF7A6FB7F
:101DB00005460EE00010024000004242800442420C
:101DC00000700040FFF79AFB401B642801D90320F4
:101DD000F0E54E48006800F000600028F2D019E0FD
:101DE0004A48C06A20F480304849C8620020484907
:101DF0008866FFF783FB054606E0FFF77FFB401B85
:101E0000642801D90320D5E54048006800F000604F
:101E10000028F2D1206AE0B33C48406800F00C0092
:101E200008285ED0206A022846D10020384908667A
:101E3000FFF764FB054606E0FFF760FB401B022846
:101E400001D90320B6E53148006800F00070002891
:101E5000F2D1606AB0F5803F0DD12C48C06A61684C
:101E600008432A49C8620846C06A20F00F00E168AA
:101E700008432649C862D4E909010843234949684F
:101E800021F4741108432149486001202049086663
:101E900000E038E0FFF732FB054606E0FFF72EFBD7
:101EA000401B022801D9032084E51848006800F08F
:101EB00000700028F2D026E0002015490866FFF7E0
:101EC0001DFB054606E0FFF719FB401B022801D960
:101ED00003206FE50D48006800F000700028F2D183
:101EE00011E0206A012800D164E50848466806F43C
:101EF0008031606A814204D106F47011A06A814287
:101F000001D0012056E5002054E5000000100240F9
:101F10000000424270B504462546681EB0F1807F3D
:101F200001D301200FE0681E4FF0E02148610F212E
:101F30004FF0FF3001F07CFE00204FF0E02188617F
:101F400007200861002070BD7047704730B5024619
:101F50000B4600BF92F83C00012801D1022030BDA1
:101F6000012082F83C0000BF022082F83D0010688A
:101F700044681068816824F070041868044310688D
:101F80004460124D1068A8420FD01068B0F1804F25
:101F90000BD00F4D1068A84207D00E4D1068A84214
:101FA00003D00D4D1068A84205D121F0800158687A
:101FB000014310688160012082F83D0000BF0020CD
:101FC00082F83C0000BF00BFC9E70000002C0140C0
:101FD0000004004000080040000C004010B504461A
:101FE0000CB9012010BD94F83D0028B9002084F8F8
:101FF0003C00204600F026F8022084F83D00211D18
:10200000206801F0D1F9012084F8460000BF84F86F
:102010003E0001213F20015540200155412001553E
:1020200000BF00BF012084F8420043200155442036
:1020300001554520015500BF012084F83D000020D6
:10204000D0E7000038B504462068B0F1804F15D1C4
:1020500000BF1348C06940F001001149C86108463B
:10206000C06900F00100009000BF002201211C2087
:10207000FFF7EAFA1C20FFF7D7FA10E009492068B9
:1020800088420CD100BF0648C06940F002000449F4
:10209000C8610846C06900F00200009000BF38BD6A
:1020A0000010024000040040014691F83D00012864
:1020B00001D001207047022081F83D000868C06807
:1020C00040F001000B68D860144B086898420FD0AC
:1020D0000868B0F1804F0BD0114B0868984207D0C8
:1020E000104B0868984203D00F4B086898420CD1F7
:1020F0000868806800F00702062A0CD008680068AB
:1021000040F001000B68186005E00868006840F0C6
:1021100001000B6818600020CCE70000002C014093
:102120000004004000080040000C00402DE9F04190
:1021300004460D46002700BF94F83C00012802D158
:102140000220BDE8F081012084F83C0000BF02209D
:1021500084F83D002068866826F0770626F47F46DE
:10216000206886602868502833D00CDC202850D0A6
:1021700004DC00284BD0102851D149E0302849D048
:1021800040284CD139E060282DD0702807D0B0F518
:10219000805F03D0B0F5005F41D10DE041E0D5E9AB
:1021A00002136A68206801F052F92068866846F0D8
:1021B00077062068866034E0D5E902136A682068F3
:1021C00001F045F92068806840F48040216888600B
:1021D00027E0EA686968206801F0CCFD502120689A
:1021E00001F0C2FC1DE0EA686968206801F0D5FDD5
:1021F0006021206801F0B8FC13E0EA686968206893
:1022000001F0B8FD4021206801F0AEFC09E000BFFC
:1022100000BF00BF2968206801F0A6FC01E001278B
:1022200000BF00BF012084F83D0000BF002084F8FB
:102230003C0000BF384684E7704710B5044620686C
:102240000069C0F34000D8B12068C068C0F3400006
:10225000B0B16FF00200216808610120207720688A
:10226000806900F0030018B12046FFF7E5FF05E0A4
:10227000204600F0E5F8204600F099F9002020778C
:1022800020680069C0F38000D8B12068C068C0F33E
:102290008000B0B16FF0040021680861022020774F
:1022A0002068806900F4407018B12046FFF7C4FF31
:1022B00005E0204600F0C4F8204600F078F9002040
:1022C000207720680069C0F3C000D8B12068C068DA
:1022D000C0F3C000B0B16FF00800216808610420AD
:1022E00020772068C06900F0030018B12046FFF78E
:1022F000A3FF05E0204600F0A3F8204600F057F9C0
:102300000020207720680069C0F30010D8B1206851
:10231000C068C0F30010B0B16FF010002168086110
:10232000082020772068C06900F4407018B120466A
:10233000FFF782FF05E0204600F082F8204600F01B
:1023400036F9002020772068006900F0010058B1BC
:102350002068C06800F0010030B16FF00100216812
:102360000861204600F094F920680069C0F3C010AD
:1023700058B12068C068C0F3C01030B16FF0800061
:10238000216808612046FFF7DFFD20680069C0F37F
:10239000801058B12068C068C0F3801030B16FF071
:1023A000400021680861204600F0C6F920680069F5
:1023B000C0F3401058B12068C068C0F3401030B17D
:1023C0006FF02000216808612046FFF7BEFD10BDB8
:1023D00010B586B00446002002900390049005904A
:1023E00013492068884220D100BF1248806940F01C
:1023F0001000104988610846806900F010000190C3
:1024000000BF4815029002200390059002A90A48D7
:10241000FEF7D8FE00BF0949486820F4406040F04C
:10242000E06040F44060486000BF06B010BD0000AE
:102430000004004000100240001001400000014074
:1024400070472DE9F04104460D461646002700BFAF
:1024500094F83C00012802D10220BDE8F08101205F
:1024600084F83C0000BF36B1042E1BD0082E31D0BA
:102470000C2E5ED145E02946206801F0B1FA2068B3
:10248000806940F00800216888612068806920F038
:1024900004002168886120688069296908432168EF
:1024A000886148E02946206800F0DCFF20688069E8
:1024B00040F40060216888612068806920F48060B1
:1024C0002168886120688069296940EA01202168C3
:1024D000886130E02946206801F0B2FA2068C069BE
:1024E00040F008002168C8612068C06920F004003D
:1024F0002168C8612068C069296908432168C861EA
:1025000019E02946206801F0CFFA2068C06940F43C
:1025100000602168C8612068C06920F4806021687B
:10252000C8612068C069296940EA01202168C86142
:1025300001E0012700BF00BF00BF002084F83C007D
:1025400000BF384689E710B504460CB9012010BD1C
:1025500094F83D0028B9002084F83C00204600F0A3
:1025600025F8022084F83D00211D206800F01CFFA2
:10257000012084F8460000BF84F83E0001213F207E
:102580000155402001554120015500BF00BF0120E9
:1025900084F842004320015544200155452001554F
:1025A00000BF012084F83D000020D0E7704770474D
:1025B00070B504460D4615B994F83E000BE0042DA5
:1025C00002D13F20005D06E0082D02D14020005DD1
:1025D00001E04120005D012801D0012070BD1DB93E
:1025E000022084F83E000EE0042D03D102213F209A
:1025F000015508E0082D03D102214020015502E0D9
:1026000002214120015501222946206800F00EFFD9
:102610001B492068884201D1012000E0002028B138
:102620002068406C40F400402168486414492068E8
:1026300088420FD02068B0F1804F0BD0114920683C
:10264000884207D010492068884203D00F4920688B
:1026500088420CD12068806800F00706062E0CD056
:102660002068006840F001002168086005E02068EB
:10267000006840F00100216808600020AEE700001B
:10268000002C01400004004000080040000C004005
:1026900010B504461B492068884203D11A4948688E
:1026A00080472EE02068B0F1804F03D11749486879
:1026B000804726E016492068884203D115494868BA
:1026C00080471EE014492068884203D113494868B6
:1026D000804716E012492068884203D111494868B2
:1026E00080470EE010492068884203D10F494868AE
:1026F000804706E00E492068884202D10D494868AB
:10270000804710BD002C0140140000201C00002058
:102710000004004024000020000800402C0000209D
:10272000000C004034000020001000403C0000205D
:1027300000140040440000207047F8B504460E46DF
:10274000174694F8420020282DD106B10FB9012078
:10275000F8BD01202063002060633A4631462046E0
:1027600000F0C4FE0546E5B9206B012818D100BF72
:102770000020009020680068009020684068009069
:1027800000BF00BF00BF21680C3151E8001F41F0BD
:10279000100021680C3141E80002002AF3D100E06A
:1027A00001252846D4E70220D2E7000070B5044690
:1027B0000D4634492068884210D13348A0F80851AA
:1027C0002946D0F80C21843090472F48B0F80421D6
:1027D00000F184012046FFF7B0FF52E02B4920684A
:1027E000884210D12A48A0F808512946D0F80C2177
:1027F000843090472648B0F8042100F18401204637
:10280000FFF79BFF3DE023492068884210D1224812
:10281000A0F808512946D0F80C21843090471E4872
:10282000B0F8042100F184012046FFF786FF28E07C
:102830001A492068884210D11948A0F80851294641
:10284000D0F80C21843090471548B0F8042100F1ED
:1028500084012046FFF771FF13E012492068884287
:102860000FD11148A0F808512946D0F80C21843026
:1028700090470D48B0F8042100F184012046FFF78D
:102880005CFF70BD00380140140E00200044004081
:10289000240F00200048004034100020004C00406D
:1028A00044110020005000405412002070470000E6
:1028B0002DE9F84F0446206805682068C66820683E
:1028C00047694FF00009CA4605F00F09B9F1000F3A
:1028D0000AD105F0200038B106F0200020B12046D2
:1028E00000F0A0FFBDE8F88FB9F1000F7BD007F032
:1028F000010018B906F49070002874D005F00100AA
:1029000030B106F4807018B1606C40F00100606472
:1029100005F0040030B107F0010018B1606C40F020
:102920000200606405F0020030B107F0010018B148
:10293000606C40F00400606405F0080048B106F0E7
:10294000200010B907F0010018B1606C40F00800D9
:102950006064606C002845D005F0200028B106F0C6
:10296000200010B1204600F05DFF20684069C0F3F0
:10297000801A606C00F0080010B9BAF1000F2CD07A
:10298000204601F00CF92068406900F0400000B3D7
:1029900000BF00BF2168143151E8001F21F0400042
:1029A0002168143141E80002002AF3D100BFE06B36
:1029B00050B17748E16B4863E06BFEF78DF888B162
:1029C000E06B416B88470DE02046FFF76FFF09E0A1
:1029D00009E02046FFF76AFF04E02046FFF766FFA4
:1029E000002060647EE7206B012876D105F010009E
:1029F000002872D006F010000028FAD000BF002096
:102A0000009020680068009020684068009000BF37
:102A10002068406900F0400000285FD0E06B00684B
:102A200040681FFA80F8B8F1000F55D0A08D4045DE
:102A300052DDA4F82E80E06B8069202843D000BFCF
:102A400000BF21680C3151E8001F21F4807021681B
:102A50000C3141E80002002AF3D100BF00BF00BFE3
:102A60002168143151E8001F21F001002168143160
:102A700041E80002002AF3D100BF00BF00BF216877
:102A8000143151E8001F21F040002168143141E861
:102A90000002002AF3D100BF202084F84200002069
:102AA000206300BF00BF21680C3151E8001F21F0F6
:102AB000100021680C3141E80002002AF3D100BF68
:102AC000E06BFDF7DDFF02206063A08DE28D801AD0
:102AD00081B22046FFF76AFE04E742E0A08DE18D57
:102AE000401A1FFA80F8E08DD0B3B8F1000F37D04C
:102AF00000BF00BF21680C3151E8001F21F4907025
:102B000021680C3141E80002002AF3D100BF00BF68
:102B100000BF2168143151E8001F21F00100216835
:102B2000143141E80002002AF3D100BF202084F8CC
:102B300042000020206300BF00BF21680C3151E833
:102B4000001F21F0100021680C3141E80002002A2A
:102B5000F3D100BF0220606341462046FFF726FE06
:102B6000C0E605F0800030B106F0800018B12046C4
:102B700000F006FFB6E605F0400030B106F0400078
:102B800018B1204601F0CEF8ACE600BFAAE600007E
:102B9000453D000810B504460CB9012010BDA069E0
:102BA00000B100E000BF94F8410028B9002084F88B
:102BB0004000204600F02AF8242084F841002068D4
:102BC000C06820F400502168C860204600F0ACFDC9
:102BD0002068006920F490402168086120684069FD
:102BE00020F02A00216848612068C06840F4005045
:102BF0002168C86000206064202084F8410084F8C7
:102C000042000020606300BFC8E7000010B586B036
:102C1000044600200290039004900590C349206868
:102C2000884235D100BFC248C06940F40020C04985
:102C3000C8610846C06900F40020019000BF00BFD1
:102C40000846806940F0100088610846806900F0FD
:102C50001000019000BF081502900220039003208D
:102C6000059002A9B348FEF7ADFA4FF40060029058
:102C700000200390049002A9AE48FEF7A3FA0022B8
:102C800011463420FEF7E0FC3420FEF7CDFC4BE18A
:102C9000A9492068884240D100BFA548C06940F4D6
:102CA0008010A349C8610846C06900F480100190F3
:102CB00000BF00BF0846806940F0100088610846E8
:102CC000806900F01000019000BF00BF08468069D5
:102CD00040F0200088610846806900F020000190E3
:102CE00000BF88140290022003900320059002A9DF
:102CF0009048FEF767FA04200290002003900490A9
:102D000002A98E48FEF75EFA002201213520FEF767
:102D10009BFC3520FEF788FC06E189492068884243
:102D200058D100BF8248806940F480408049886162
:102D30000846806900F48040019000BF00BF08464B
:102D4000806940F0080088610846806900F008004A
:102D5000019000BF402002900220039003200590C4
:102D600002A97848FEF72EFA8020029000200390F6
:102D7000049002A97348FEF725FA00BF724948681B
:102D800040F0E06040F00400486000BF6F487049C8
:102D900008601020486000216D4881608021C1607A
:102DA00000210161416181614FF48051C161FEF7F1
:102DB00033F908B1FDF761FE00BF6548A0634462C6
:102DC00000BF002201212520FEF73EFC2520FEF752
:102DD0002BFCA9E05F492068884250D100BF5448CD
:102DE000C06940F400305249C8610846C06900F427
:102DF0000030019000BF00BF0846806940F0040029
:102E000088610846806900F00400019000BF04203A
:102E10000290022003900320059002A94E48FEF77D
:102E2000D1F90820029000200390049002A94A489A
:102E3000FEF7C8F945482830484908600020486036
:102E40000021464881608021C1600021016141610B
:102E500081614FF48051C161FEF7DEF808B1FDF7E2
:102E60000CFE00BF3D48E063446200BF0022012128
:102E70002620FEF7E9FB2620FEF7D6FB54E0384972
:102E80002068884250D100BF2948C06940F48020A2
:102E90002749C8610846C06900F48020019000BF3E
:102EA00000BF0846806940F00800886108468069D4
:102EB00000F00800019000BF081502900220039066
:102EC0000320059002A91F48FEF77CF94FF400602B
:102ED000029000200390049002A91A48FEF772F9AC
:102EE0001A4814381F4908600020486000211D4816
:102EF00081608021C16000210161416181614FF4E5
:102F00008051C161FEF788F808B1FDF7B6FD00BF3A
:102F10001448E063446200BF002201212720FEF72D
:102F200093FB2720FEF780FB06B010BD004C00404D
:102F30000010024000100140005000400014014009
:102F400000380140000C01400000014044000240F4
:102F5000480D002000440040000801408C0D002076
:102F600000480040D00D0020704770472DE9F84F11
:102F700004460E46174699464FF0000A94F8410061
:102F800020284AD106B117B90120BDE8F88F0020EA
:102F90006064212084F84100FEF7B0FA8246A784DD
:102FA000E784A068B0F5805F04D1206910B90025DE
:102FB000B04602E035464FF000081BE053460022C1
:102FC00080212046CDF8009000F004FF08B10320D6
:102FD000DBE745B9B8F80000C0F308002168486095
:102FE00008F1020803E02878216848606D1CE08C35
:102FF000401EE084E08C0028E0D1534600224021AE
:103000002046CDF8009000F0E5FE08B10320BCE7B3
:10301000202084F841000020B7E70220B5E7704780
:1030200000BFFEE708B500BF1248406940F001004C
:10303000104948610846406900F00100009000BF57
:10304000002211460D20FEF7FFFA0D20FEF7ECFAE4
:10305000002211460E20FEF7F7FA0E20FEF7E4FAE2
:10306000002211461020FEF7EFFA1020FEF7DCFADE
:1030700008BD00000010024000B585B0002001909E
:1030800002900390049000BF2F48806940F0200018
:103090002D4988610846806900F02000009000BF3B
:1030A00000BF0846806940F00400886108468069D6
:1030B00000F00400009000BF00BF0846806940F0A7
:1030C000080088610846806900F00800009000BF91
:1030D00000BF0846806940F010008861084680699A
:1030E00000F01000009000BF0122C0211748FEF739
:1030F000FFF940200190012002900390049001A963
:103100001248FEF75FF88020019001200290022013
:1031100003900120049001A90C48FEF753F84FF4E6
:10312000004001900A4802900120039001A907483D
:10313000FEF748F8002211462820FEF785FA2820DD
:10314000FEF772FA05B000BD001002400008014011
:103150000000211000B587B0002003900490059076
:103160000690019002904FF080401449086047207B
:10317000486000211148816040F2E731C1600021C0
:10318000016180218161FEF729FF08B1FDF775FC1F
:103190004FF48050039003A90848FEF7C7FF08B119
:1031A000FDF76BFC00200190029001A90348FEF797
:1031B000CDFE08B1FDF761FC07B000BD500B00204B
:1031C00000B58DB0002009900A900B900C900790EC
:1031D00008901C216846FDF7F6F92148214908604E
:1031E0000120486000211F48816040F2E731C16042
:1031F0000021016180218161FEF7F0FE08B1FDF739
:103200003CFC4FF48050099009A91648FEF78EFF48
:1032100008B1FDF732FC1348FFF795F908B1FDF747
:103220002CFC00200790089007A90E48FEF78EFEA0
:1032300008B1FDF722FC602000904FF4FA70019075
:103240000020029004900C2269460648FFF7F9F826
:1032500008B1FDF712FC0348FFF7BAF80DB000BD46
:1032600000040040980B002010B50B480B49086083
:103270004FF416504860002108488160C160016128
:103280000C21416100218161C161FFF783FC08B11C
:10329000FDF7F3FB10BD0000004C0040000D0020C6
:1032A00010B50B480B4908604FF4E130486000212D
:1032B00008488160C16001610C2141610021816188
:1032C000C161FFF767FC08B1FDF7D7FB10BD000037
:1032D00000500040E00B002010B50B480B4908607F
:1032E0004FF416504860002108488160C1600161B8
:1032F0000C21416100218161C161FFF74BFC08B1E4
:10330000FDF7BBFB10BD000000380140280C002079
:1033100010B50B480B4908604FF416504860002167
:1033200008488160C16001610C2141610021816117
:10333000C161FFF72FFC08B1FDF79FFB10BD000036
:1033400000440040700C002010B50B480B49086089
:103350004FF416504860002108488160C160016147
:103360000C21416100218161C161FFF713FC08B1AB
:10337000FDF783FB10BD000000480040B80C0020A2
:1033800000BFFEE700BFFEE77047704710B5FEF7CD
:10339000DDF810BD7047000010B50248FEF74DFF84
:1033A00010BD0000500B002010B502681B4B984266
:1033B0000BD0B0F1804F08D0194B984205D0194B73
:1033C000984202D0184B984203D122F070024B6809
:1033D0001A43124B98420BD0B0F1804F08D0104BDB
:1033E000984205D00F4B984202D00F4B984203D120
:1033F00022F44072CB681A4322F080034C6943EAFE
:10340000040202608B68C3620B688362034B9842BC
:1034100001D10B6903630123436110BD002C0140FE
:103420000004004000080040000C004030B501F0EE
:103430001F05012404FA05F3046A9C430462046A2C
:1034400001F01F0502FA05F52C43046230BD30B5CA
:103450000C46816821F47F4142EA03252543294334
:10346000816030BD30B5026A056A25F0100505623D
:103470004368846924F4E04424F440740D6844EA09
:10348000052422F020028D6842EA05120E4DA84262
:1034900007D100BF22F08002CD6842EA051222F077
:1034A0004002094DA84209D123F4806323F400634C
:1034B0004D6943EA85038D6943EA8503436084616E
:1034C0004D688563026230BD002C014010B5024892
:1034D000FFF7EEF910BD0000000D002010B5024806
:1034E000FFF7E6F910BD0000E00B002077B581B0D2
:1034F000044615460298A062A5850020606422203B
:1035000084F842002748E16B88622748E16BC86273
:103510002648E16B08630020E16B486302AE326825
:103520002368191D2B46E06BFDF7BCFD00BF002092
:10353000009020680068009020684068009000BFFC
:10354000206970B100BF00BF21680C3151E8001F35
:1035500041F4807021680C3141E80002002AF3D167
:1035600000BF00BF00BF2168143151E8001F41F0C7
:1035700001002168143141E80002002AF3D100BFA4
:1035800000BF00BF2168143151E8001F41F0400026
:103590002168143141E80002002AF3D100BF002065
:1035A00004B070BD713C00087B3B0008C1360008C8
:1035B00010B50248FFF77CF910BD0000280C002070
:1035C00010B50248FFF774F910BD0000700C002020
:1035D00010B50248FFF76CF910BD0000B80C0020D0
:1035E00000BFFEE770B504460D462448007800F0A1
:1035F000010040B9214801F053F920B1204805608D
:103600001E48AFF300801F48007858B11E4800687C
:10361000400034F810001D490968886200201949EB
:1036200008701CE01A480068401C194908601648D8
:103630000068012101EB400034F8100000EB80002D
:103640001349096888420AD80F480068401C0E498F
:10365000086000200E49086001200A4908700A48E5
:10366000006807490968B0EB510F04D300200649F0
:103670000860012070BD0020FCE700003C0B00202A
:103680004C0B0020400B0020440B0020980B002026
:10369000480B002030B590F840500124AC40C56B79
:1036A0006C60046863604468102C04D10468A260F4
:1036B0000468E16003E00468A1600468E26030BD72
:1036C00070B506460025746A20684069C0F3C015CD
:1036D00094F84100212805D125B10020E08420463E
:1036E00000F093FA20684069C0F3801594F8420016
:1036F000222805D125B10020E085204600F04FFAB0
:10370000606C40F0100060642046FFF7CFF870BD99
:1037100070B504460D461646FF233246294620461C
:10372000FFF724FC70BD000070B5044621680969EC
:1037300021F44051E2681143226811612269A168B5
:103740001143626941EA02052168C96841F20C62CD
:10375000914329432268D1602168496921F440716D
:10376000A2691143226851612D4A2168914202D118
:10377000FEF798F801E0FEF785F800EBC00101EBD9
:10378000001162689200B1FBF2F100EBC00202EBA3
:10379000001263689B00B2FBF3F26423B2FBF3F206
:1037A00002EBC20303EB0212A1EB8201322202EB15
:1037B00001116422B1FBF2F101F0F00100EBC00253
:1037C00002EB001263689B00B2FBF3F26423B2FBCE
:1037D000F3F201EB021200EBC00101EB0011636890
:1037E0009B00B1FBF3F100EBC00303EB0013666831
:1037F000B600B3FBF6F36426B3FBF6F303EBC306A4
:1038000006EB0313A1EB8301322303EB01116423C5
:10381000B1FBF3F101F00F0111442268916070BD1A
:1038200000380140F8B5044694F84200222874D1CB
:10383000A068B0F5805F0CD1206950B90025A66A58
:1038400020684068C0F308003080A06A801CA06235
:1038500015E0A56A0026A068B0F5805F03D0A068D7
:1038600028B9206918B920684068287004E02068E9
:10387000406800F07F002870A06A401CA062E08DC4
:10388000401E80B2E085002845D12068C06820F045
:1038900020002168C8602068C06820F4807021681A
:1038A000C8602068406920F001002168486120203C
:1038B00084F8420000206063206B012825D100209D
:1038C000206300BF00BF21680C3151E8001F21F0C8
:1038D000100021680C3141E80002002AF3D100BF3A
:1038E0002068006800F01000102809D100BF0020F7
:1038F000009020680068009020684068009000BF39
:10390000A18D2046FEF752FF02E02046FFF72CFB78
:103910000020F8BD01E00020FBE70220F9E72DE9D7
:10392000F04107460C464FF0000800250026002015
:1039300020603846FCF78FFD804600BF1CE0302237
:103940003046761C22543046761C2254785DC117CE
:1039500000EB1171091130313246761CA154785DAB
:10396000C11700EB11710911A0EB01113031CBB27D
:103970003146761C63546D1C4545E0DBBDE8F081A3
:10398000014691F84100212828D18868B0F5805F70
:103990000BD1086948B90A6A1088C0F308000B689F
:1039A0005860086A801C086205E00B6A581C0862AF
:1039B00018780B685860C88C401E80B2C88458B90B
:1039C0000868C06820F080000B68D8600868C0688C
:1039D00040F040000B68D860002070470220FCE7F0
:1039E00030B5026A056A25F00105056243688469FD
:1039F00024F0700424F003040D682C4322F002022A
:103A00008D682A430D4DA84206D100BF22F008025E
:103A1000CD682A4322F00402084DA84207D123F4BE
:103A2000807323F400734D692B438D692B434360EE
:103A300084614D684563026230BD0000002C014086
:103A400030B5026A056A25F4807505624368C46969
:103A500024F0700424F003040D682C4322F4007257
:103A60008D6842EA05220F4DA84207D100BF22F41B
:103A70000062CD6842EA052222F48062094DA84224
:103A800009D123F4805323F400534D6943EA05130D
:103A90008D6943EA05134360C4614D68C5630262E2
:103AA00030BD0000002C014030B5036A056A25F4E2
:103AB000805505624468C26922F4E04222F44072F3
:103AC0000D6842EA052223F400538D6843EA05336A
:103AD000064DA84204D124F480444D6944EA85147B
:103AE0004460C2614D680564036230BD002C014032
:103AF00000B593B0382105A8FCF765FD1421684690
:103B0000FCF761FD0120059000040790002008905B
:103B100001200A900020069002200D90C1030E9112
:103B20004FF4E0110F910020109005A8FDF73EFF23
:103B300008B1FCF7A2FF0F200090022001900020A6
:103B400002904FF4806003900020049002216846A8
:103B5000FDF7CCFD08B1FCF790FF01200149086793
:103B600013B000BD000042420A46816821F0700196
:103B700042F0070319438160704770B505466C6ACF
:103B800001206063206B012805D1A08D41082046EB
:103B9000FEF70CFE02E02046FFF7E7F970BD00BF1C
:103BA00000BF02680C3252E8002F22F490710268C4
:103BB0000C3242E80013002BF3D100BF00BF00BF5E
:103BC0000268143252E8002F22F001010268143218
:103BD00042E80013002BF3D100BF016B01290ED185
:103BE00000BF00BF02680C3252E8002F22F0100123
:103BF00002680C3242E80013002BF3D100BF2021F1
:103C000080F8421000210163704700BF00BF0268C6
:103C10000C3252E8002F22F0C00102680C3242E858
:103C20000013002BF3D100BF202180F84110704712
:103C300010B5002804DB0A07130E054A135406E0EA
:103C40000A07140E034A00F00F031B1FD45410BDC3
:103C500000E400E018ED00E070B504460D460349AD
:103C6000486D214600F060FA70BD00004817002042
:103C700070B505466C6A2868006800F020000028CE
:103C800042D1E08500BF00BF21680C3151E8001F20
:103C900021F4807021680C3141E80002002AF3D140
:103CA00000BF00BF00BF2168143151E8001F21F0A0
:103CB00001002168143141E80002002AF3D100BF5D
:103CC00000BF00BF2168143151E8001F21F04000FF
:103CD0002168143141E80002002AF3D100BF2020FE
:103CE00084F84200206B01280ED100BF00BF21687C
:103CF0000C3151E8001F21F0100021680C3141E81F
:103D00000002002AF3D100BF00206063206B01286D
:103D100004D1A18D2046FEF749FD02E02046FFF7C1
:103D200023F970BD10B504462068C06820F040003B
:103D30002168C860202084F841002046FFF76FF911
:103D4000002010BD70B505466C6A0020E085E08457
:103D50002046FEF7ABFD70BD70B504460D46044924
:103D6000496D01F15C00214600F048FA70BD000089
:103D70004817002030B50B461446026A056A25F044
:103D800001050562816921F0F00141EA041122F088
:103D90000A021A438161026230BD30B50B461446F7
:103DA000026A056A25F010050562816921F47041F7
:103DB00041EA043122F0A00242EA03128161026268
:103DC00030BD000002480068C0F3022070470000C8
:103DD0000CED00E02DE9F04104460D4617469846EB
:103DE000069E34E0701C88B32EB1FDF787FBA0EB74
:103DF0000800B0422BD900BF00BF21680C3151E848
:103E0000001F21F4D07021680C3141E80002002A23
:103E1000F3D100BF00BF00BF2168143151E8001F7B
:103E200021F001002168143141E80002002AF3D199
:103E300000BF202084F8410084F8420000BF002029
:103E400084F8400000BF0320BDE8F081FFE7206850
:103E500000682840A84201D1012000E00020B842BB
:103E6000C0D00020F0E7000010B5024800F054FC7C
:103E700010BD0000481700201B4B02689A4203D176
:103E80001A4A106051602EE00268B2F1804F03D1EF
:103E9000174A1060516026E0164B02689A4203D11F
:103EA000154A106051601EE0144B02689A4203D11B
:103EB000134A1060516016E0124B02689A4203D117
:103EC000114A106051600EE0104B02689A4203D113
:103ED0000F4A1060516006E00E4B02689A4202D110
:103EE0000D4A106051607047002C01401400002002
:103EF0001C000020000400402400002000080040B6
:103F00002C000020000C0040340000200010004075
:103F10003C000020001400404400002008B508497F
:103F20000968C9084FF47A72B1FBF2F1414300917C
:103F300000BF00BF00994A1E00920029F9D108BDB8
:103F40000C00002010B513491348FFF795FF142209
:103F50001249134800F032F817221249124800F0B3
:103F60002DF800221146114800F028F81048114998
:103F70004865002204210F4800F062FC0D49486D9D
:103F800000F05CFA0448FEF78FF80C210A48FEF7AF
:103F90000FFB10BD693E0008500B0020593D000882
:103FA000700C0020593C0008B80C0020E00B0020E9
:103FB000A816002048170020980B002070B5044672
:103FC0000D4616462C49206888420DD12B480460C6
:103FD000C0F80C51A0F80461B0F8042100F184018C
:103FE0002046FEF7AAFB46E02549206888420DD10D
:103FF00024480460C0F80C51A0F80461B0F8042112
:1040000000F184012046FEF798FB34E01E49206849
:1040100088420DD11D480460C0F80C51A0F804611D
:10402000B0F8042100F184012046FEF786FB22E06F
:104030001749206888420DD116480460C0F80C5119
:10404000A0F80461B0F8042100F184012046FEF7D5
:1040500074FB10E01049206888420CD10F480460BE
:10406000C0F80C51A0F80461B0F8042100F18401FB
:104070002046FEF762FB70BD00380140140E0020A0
:1040800000440040240F002000480040341000206D
:10409000004C004044110020005000405412002009
:1040A00070B50446206800F184011722601DFCF7FA
:1040B000F1F9206800F18405E87C50B9287D40B909
:1040C000687D30B9A87D20B91721601DFCF759FA29
:1040D00070BDA87823346074287820742879A0747F
:1040E0006879E074D5F807006061D5F80B00A0612D
:1040F000B5F80F00A083687CA077D5F81300C4F84A
:104100001F00012004F81F0C233C06480078401CC7
:10411000044908701722611D04F11C00FCF7BAF96C
:1041200000BFD5E71000002070B504460D462046BC
:10413000FFF7B6FF70BD0000124B0A689A4202D129
:10414000114A02601AE0114B0A689A4202D1104AE1
:10415000026013E00F4B0A689A4202D10E4A0260D5
:104160000CE00E4B0A689A4202D10D4A026005E04B
:104170000C4B0A689A4201D10B4A0260002202717C
:104180007047000000380140140E00200044004039
:10419000240F00200048004034100020004C004054
:1041A00044110020005000405412002070B5044615
:1041B000A06800F18401142204F10C00FCF7AFF9AF
:1041C000A06800F184052878FF280BD16E7832466C
:1041D000A91C601CFCF75EF9601CFCF73CF9064961
:1041E000088000BFA16801F1840014220021FCF7BF
:1041F00096F90120207070BD1200002070B50446B1
:104200000D462046FFF7D2FF70BD0000124B0A6832
:104210009A4202D1114A82601AE0114B0A689A420E
:1042200002D1104A826013E00F4B0A689A4202D111
:104230000E4A82600CE00E4B0A689A4202D10D4A87
:10424000826005E00C4B0A689A4201D10B4A8260F9
:10425000002202707047000000380140140E002058
:1042600000440040240F002000480040341000208B
:10427000004C004044110020005000405412002027
:1042800070B5044604F15C00411C0E46203000F07D
:10429000ADF905463DB11722294604F18000FCF72F
:1042A000F9F8012070BD0020FCE710B5044604F1C8
:1042B0008F0104F17C0000F0B6F914F8970F401E4E
:1042C000207014F89709002802DA002084F897007B
:1042D00010BD2DE9FE4F044600BF04F14200054623
:1042E00029463A3000F082F910B10020BDE8FE8F77
:1042F00000BF04F1420005460B3806463334E0782F
:104300000746A07880466078814614F833098246D3
:1043100043464A46514604F17C00CDE900760295B9
:1043200000F0C8F900BF94F8330084F8800000BFA3
:1043300094F834008121085500BF94F8350082219B
:10434000085500BF94F836008321085500BF04F1DA
:1043500042000068C4F88F0000BF04F137008E21CE
:104360000268C4F884204268C4F888200289A4F84E
:104370008C20807A085594F89700401C84F89700A8
:104380000120B3E730B587B004461625182101A8EF
:10439000FCF719F9A5208DF8040001208DF805001F
:1043A000EA1E04F180010DF10600FCF773F81121FB
:1043B000681E01AA115454F89C1F081D2A4601A921
:1043C000FCF7ADF82068A0F80A5154F89C39B3F80E
:1043D0000A21191D18680A23FEF7C8FD07B030BD71
:1043E00030B587B004461625182101A8FCF7EBF874
:1043F000A5208DF8040002208DF80500EA1E04F1C6
:1044000080010DF10600FCF745F81121681E01AA94
:10441000115454F89C1F081D2A4601A9FCF77FF887
:104420002068A0F80A5154F89C39B3F80A21191DE4
:1044300018680A23FEF79AFD07B030BD10B5044690
:104440000C492046FFF778FE0B4904F15C00FFF7AA
:10445000DDFE04F17C0000F02AF908489734C4F826
:104460000500002020700120A070E0700020607026
:10447000973C10BDB80C0020700C00205412002096
:1044800070B506460C462046FBF7E5FF85B22A4686
:1044900021460248FFF73CF970BD0000280C0020BF
:1044A00070B5E8B006460C46154664214FA8FCF7E7
:1044B0008AF8642136A8FCF786F8002033903490FF
:1044C0003590C82101A8FCF77EF828683390686809
:1044D00034902889ADF8D400A87A8DF8D60036A992
:1044E0002046FFF71CFA4FA933A8FFF718FA22A1BC
:1044F0003046FFF7C5FF4FF4FA70FCF721FE21A10B
:104500003046FFF7BDFF4FF4FA70FCF719FE22A109
:104510003046FFF7B5FF4FF4FA70FCF711FE21A10A
:104520003046FFF7ADFF4FF4FA70FCF709FE4FAAD3
:1045300022A101A8FBF71EFF01A93046FFF7A0FF4B
:10454000C82101A8FCF73FF84FF4FA70FCF7F8FD1A
:1045500036AA1EA101A8FBF70DFF01A93046FFF7FF
:104560008FFF4FF4FA70FCF7EBFD1FA13046FFF709
:1045700087FF68B070BD000041542B434D47463D56
:10458000310D0A0041542B435343533D22554353AD
:1045900032220D0A0000000041542B435343413F97
:1045A0000D0A000041542B43534D503D31372C31FF
:1045B00036372C302C32350D0A00000041542B4385
:1045C0004D47533D222573220D0A000036304138F5
:1045D000373638343941384338424331373830314F
:1045E00036363246257300001A00000010B5034627
:1045F0000A46196813E0C87B1478A0420DD1087CE4
:104600005478A04209D1487C9478A04205D1887C96
:10461000D478A04201D1084610BDD1F8131000296A
:10462000E9D10020F8E72DE9F04104460D4626685F
:1046300027682068C07B2978884217D12068007CD1
:104640006978884212D12068407CA97888420DD1CF
:104650002068807CE978884208D12068D0F813006F
:104660002060304600F003F9BDE8F0811AE0F07BED
:104670002978884213D1307C697888420FD1707CC8
:10468000A97888420BD1B07CE978884207D1D6F866
:104690001300C7F81300304600F0E9F804E037468D
:1046A000D6F81360002EE2D100BF00BFDCE7002186
:1046B000016070472DE9F05F05460E4617469846A3
:1046C000DDE90AABDDF8309049462846FFF78EFF5A
:1046D00008B1BDE8F09F172000F0CEF80446267020
:1046E000677084F8028084F803A0DBF80000606043
:1046F000DBF80400A060BBF80800A0819BF80A006A
:10470000A073D9F80000C4F80F002868C4F813009B
:104710002C6000BFDDE7000010B50446606D90F826
:104720009A00616D91F89910884202D000203A49B0
:104730000870606D90F8990048B93748007830B932
:1047400012213648FEF74EFF334908700DE0606DC8
:1047500090F89900012808D12F48007828B90A213B
:104760002F48FEF73FFF2C4908702B48007818B1FE
:1047700001202C4909688862606D90F89900616D8C
:1047800081F89A0094F8510004EBC0004068401C86
:1047900094F8511004EBC101486094F851000028CE
:1047A00039D1606D007920B3606DFFF792FDE8B1FB
:1047B000606D90F89900012808D1636D03F18402BF
:1047C00003F18F0103F14800FFF76AFE606DFFF708
:1047D000D9FD15A11848FBF7CDFD1848FCF794FE4C
:1047E00064230D2214491548FEF7C0FB0020616DBB
:1047F0000871606D90F85C0068B1606DFFF740FD76
:1048000028B1606DFFF7ECFD606DFFF74EFD0020F5
:10481000616D81F85C0010BD380B0020FC000020A9
:1048200084000020980B0020636C69636B206D305E
:104830002C31FFFFFF000000A0170020000D00201A
:1048400030B50B4680F8503080F85120002106E04A
:10485000002400F8314000EBC1056C60491C90F861
:1048600050408C42F4DC012100F8321030BD10B50C
:10487000FBF707FF10BD000010B5040007D10124AD
:1048800005E0FBF7CBFE006800B9044880472046EE
:10489000FBF7C8FE0028F4D010BD00003707000861
:1048A000016809B100207047012101600846704786
:1048B000FCF758FEFFF71CF9FEF7DEFBFEF7B2FB34
:1048C000FEF7EEFCFEF708FDFEF722FDFEF73CFDCD
:1048D000FEF740FCFEF774FCFEF7C6FCFFF732FB68
:1048E00000BFFEE7000004050607080900000000FD
:1048F000000D0102030405060708090A0B0C0D0E42
:104900000F10000000000000000001020304060771
:104910000809000000000102030400003C490008EF
:1049200000000020500B00008C010008E84A00083D
:10493000500B0020C02A0000F001000812000112F4
:10494000100422010900047224F400011006500032
:1049500032004704124304923C0C10044300649E4E
:10496000320A0C011E202118F23508326414A110FD
:10497000322A144158100690001900880412790454
:10498000126C0C12D97C525A0C126C50F0040000BC
:10499000962492F22461386120612C12B644920070
:1049A00010011060022F4B5C1004000014643232BE
:1049B000044170C10C21B0525A0801182881B82155
:1049C000A856A208012E58414421882190254C0266
:1049D0003B32446188A19C41A4021164144178D205
:1049E0005ACC6130168858500400001E9C45102196
:1049F000305650DC3250044110255C296C211432B1
:104A0000470C2950D205144504124310123C14528D
:104A1000432C4150E158721964725A2441C0257CDC
:104A2000765AA421D82538026B19A812351C4104E6
:104A300001121441A0452072640421A4AD60031248
:104A40002730322A0401180C923C68012030BE192C
:104A5000A40396434C5243E06578451041187E43C9
:104A6000E003700419002F44212C41AC0134B8013B
:104A700028E40116B4011ACC6DD4040E3543780332
:104A80000DFFD0030DFFD0030DFFD0030D9BD0030E
:104A9000011A30011C446DEC088DB4040E273C4013
:104AA000050538A029740D2474050E2332740525DC
:104AB0000C5E3C60090D4A70056DC8090D286C0537
:104AC000259441E06D340A6D7C050512A45227043B
:104AD000011618C5A41E052C0B5C04F40101BC0AC8
:084AE000DE01320B00000000B2
:04000005080001519D
:00000001FF
